:020000040000fa
:080000000002040000000000f2
:020000040000fa
:100008009a0200009a0200009a0200009a02000078
:100018009a0200009a0200009a0200009a02000068
:100028009a0200009a0200009a0200009a02000058
:100038009a0200009a0200009a0200009a02000048
:020000040000fa
:020000040000fa
:100400002f8120000e7f22000e01880000000000d6
:10041000000020000000e000020032000001200087
:10042000200288000c000700408e20000100200000
:1004300011000700000020000000e0000200320070
:100440000000020000000000280702000000000079
:100450000040da000000fe004440a90080002000b7
:100460000000e0000300320000002000a00188002e
:100470004440a80000000600910188008000780038
:100480000000eb0015003700e280400032a0b4000d
:100490009101ba00e280400032a0b4009102ba009b
:1004a000e280400032a0b4000002eb00472bde00e7
:1004b000f507b200602ce10004003a000059eb009f
:1004c0008301e900fdff3e00040037006128e100e0
:1004d000010032000082eb00040007001101ba00a5
:1004e0000200e000e8ff3a00000006003159ba00bf
:1004f0008301e9000c0032002159ba008301e900b0
:10050000080032000400e00003003a00e2804000ee
:1005100032a0b400f5ff370011d9ba008301e90019
:10052000faff3a008100e800e180400032a0b40008
:0c053000000006000040da000000fe00a1
:020000040000fa
:10053c00486500006c6c00006f210000000000009a
:020000040000fa
:10054c000000fa00c842a900c862a9002c83a800c8
:10055c002ca3a80017e2a8008a40a900441f200081
:10056c00a41088000082eb00641988000080fa0057
:10057c00000006000200fa00004f780011479800b6
:10058c001602a80000000000b41080006102620096
:10059c00e00f5200fcff3a001e4290000402fb00e8
:1005ac00040242009410880000000000c510800076
:1005bc000400240004826200e00f5200fbff3a00aa
:1005cc00c41080001e02fb00941088000000000084
:1005dc00c51080000400240004826200e00f520069
:1005ec00fbff3a00c41080001642a8000000000077
:1005fc00b410800064026200e00f5200fcff3a006d
:10060c000080fa00000006000a00fa00404798003b
:10061c0031079800024f98003e0290004822de00fd
:10062c0004427800044f78003e02900004427800a7
:10063c00144798003e02900004427800244798002a
:10064c001602a80000000000b410800061026200d5
:10065c00e00f5200fcff3a004e4290000402fb00f7
:10066c00040242009410880000000000c4108000b6
:10067c0061026200e00f5200fcff3a00c5108000de
:10068c000400240004826200e00f5200f7ff3a00dd
:10069c00c41080001e4278000402fb0094108800f5
:1006ac0000000000c410800061026200e00f5200e4
:1006bc00fcff3a00c5108000040024000482620094
:1006cc00e00f5200f7ff3a00c41080001e42900069
:1006dc000402fb009410880000000000c41080008d
:1006ec0061026200e00f5200fcff3a00c51080006e
:1006fc000400240004826200e00f5200f7ff3a006d
:10070c00c41080000e4a90000402fb009410880074
:10071c0000000000c410800061026200e00f520073
:10072c00fcff3a00c5108000040024000482620023
:10073c00e00f5200f7ff3a00c41080001642a800e8
:10074c0000000000b410800064026200e00f520050
:10075c00fcff3a000080fa00000006000400fa00da
:10076c00204798001602a80000000000b41080007a
:10077c0061026200e00f5200fcff3a002e42900032
:10078c000402fb00040242000400a0009410880044
:10079c0000000000c51080000400240004826200e8
:1007ac00e00f5200fbff3a00c41080000000000074
:1007bc00c410800062026200e00f5200fcff3200a5
:1007cc0084108000044f780016a2a8001682a8009e
:1007dc00000000005404800064026200e00f52002c
:1007ec00fcff32008a40a9001642a800000000005d
:1007fc00b410800064026200e00f5200fcff3a006b
:10080c001e427800044078000080fa0000000600c8
:10081c000800fa0040479800310798000002eb00ee
:10082c00040f78001602a80000000000b41080002d
:10083c0061026200e00f5200fcff3a004e42900051
:10084c000402fb0004024200941088000000000027
:10085c00c410800061026200e00f5200fcff3a00fd
:10086c00c51080000400240004826200e00f5200d6
:10087c00f7ff3a003e02900048a2de009410880078
:10088c0000000000c410800061026200e00f520002
:10089c00fcff3a00c51080000400240004826200b2
:1008ac00e00f5200f7ff3a003e0290004822dd00b4
:1008bc0048a2de009410880000000000c4108000e4
:1008cc0061026200e00f5200fcff3a00c51080008c
:1008dc000400240004826200e00f5200f7ff3a008b
:1008ec001642a80000000000b410800064026200f0
:1008fc00e00f5200fcff3a000002eb00040f7800fe
:10090c0003003700803e2000ef0107001e0fe800b7
:10091c00743e20009e027800848f5200f9ff340050
:10092c001602a80000000000b410800061026200f2
:10093c00e00f5200fcff3a004e4290000402fb0014
:10094c00040242000400a000941088000000000083
:10095c00c410800061026200e00f5200fcff3a00fc
:10096c00c51080000400240004826200e00f5200d5
:10097c00f7ff3a0000000000c510800004002800ba
:10098c0004826200e00f5200fbff3a001662a800de
:10099c0000000000c410800062026200e00f5200f0
:1009ac00fcff32008410800024479800c5108000a2
:1009bc000408200004826200e00f520001003200a3
:1009cc0018e2a90016a2a8001682a8001642a800d8
:1009dc0000000000b410800064026200e00f5200be
:1009ec00fcff3a002e429000044078000080fa0090
:1009fc00000006000800fa00004f7800110798006c
:100a0c0022079800330798003e029000e00f520036
:100a1c000900320065168000f4ff20008482620019
:100a2c001e4378000682fb004c22dd00050272009a
:100a3c00641688000a00370065168000f4ff200059
:100a4c00848262001e4278000483fb00040f2000a5
:100a5c00040263004822dd0005027200641688005f
:100a6c001e02900004427800614262000482fb0086
:100a7c00610262004722dd0066168000f5f72f0048
:100a8c0085026300050272006416880010002000c5
:100a9c008d010700ccc2a800100020008a010700bd
:100aac00ccc2a90010002000870107002e00900086
:100abc00850107000080fa00000006000600fa001d
:100acc00004f780011079800220798008001eb0076
:100adc002e0190009e0090001e407800c5ff07007c
:100aec00130020002e0190009e0090001e40780004
:100afc00c0ff07000080fa00000006000200fa00a8
:100b0c00004f78001e427800e20220001100200005
:100b1c0004407800e9ff07000080fa00000006009e
:100b2c000000fa00c8e2a900c8c2a900c9e2a900e5
:100b3c00c9c2a900c9a2a900c982a90080a9230021
:100b4c006101070013002000420021008000eb002f
:100b5c0030c0b300a7ff070013002000420620009e
:100b6c008000eb0030c0b300a2ff0700420620005b
:100b7c008000eb0020c3b300d0ff070082022000ee
:100b8c008000eb0080c2b300ccff07008202200083
:100b9c008000eb0080c0b300c8ff07008266200015
:100bac008000eb0010c0b300c4ff070082022000dd
:100bbc008000eb0060c0b300c0ff07008202200081
:100bcc008000eb00c0c0b300bcff07000080fa003f
:100bdc00000006000400fa00100798000002eb0069
:100bec00040f7800070037001e0278009e02900068
:100bfc00048242001442780004407800bfff0700d2
:100c0c001e0fe8001e0278009e0290000482420033
:100c1c0014427800e04f5200f3ff3a000080fa00d3
:100c2c00000006000000fa00826620008000eb0045
:100c3c0010c0b300a1ff07000080fa0000000600fe
:100c4c000400fa0020479800314798000042eb005e
:100c5c00044f780014c0b300144798001e42900053
:100c6c000402fb004722dd00144798002e4290003e
:100c7c00e14f520003003a001e4278000444b000d9
:100c8c00044f78009e4278003e42900004c242001d
:100c9c00044f78001e4290001e42720014479800c8
:100cac001e429000820220008000eb00044078007d
:100cbc0082ff07000080fa00000006000200fa0024
:100ccc0097ff07000002eb00040f780030c6b3005a
:100cdc008aff07000002eb00040f780003003700c6
:100cec00803e2000f80007001e0fe800743e200034
:100cfc009e027800848f5200f9ff3400c9ff070070
:100d0c00e0292800b3ff070021c0b30010c0b300d6
:100d1c00cbff07000002eb00040f78000300370044
:100d2c00803e2000e80007001e0fe800743e200003
:100d3c009e027800848f5200f9ff3400e0292800cd
:100d4c00a4ff07000002eb00040f7800030037003b
:100d5c00803e2000dc0007001e0fe800743e2000df
:100d6c009e027800848f5200f9ff34000080fa0054
:100d7c00000006000000fa0012c0b3008101200040
:100d8c0090c2b30020fe07000002eb0004007800c4
:100d9c000080fa00000006000200fa00f1c4b30063
:100dac0090c2b3009afe07000042780014479800e6
:100dbc001e429000674f620007003700f1c4b30079
:100dcc0090c2b30092fe07000042780014479800ce
:100ddc001e429000674f62001e427800e44f5200a2
:100dec00f6ff3a000002eb00040078000080fa00e5
:100dfc00000006000200fa0021c6b30090c2b30046
:100e0c0083fe0700004278000402fb00040f780008
:100e1c001e027800040078000080fa000000060032
:100e2c000000fa0072c0b3005101200090c2b30060
:100e3c00f5fd07000002eb00040078000080fa00ca
:100e4c00000006000200fa00bdfd070012c0b3004e
:100e5c007120200090c2b300ebfd070012c0b3005c
:100e6c008120200090c2b300e7fd07000041eb0099
:100e7c006109200090c2b300e3fd0700d2cfb3009c
:100e8c007109200090c2b300dffd07000041eb00a8
:100e9c00310e200090c2b300dbfd070042c0b3004e
:100eac00410e200090c2b300d7fd070022c0b30052
:100ebc00510e200090c2b300d3fd070012c0b30046
:100ecc00610e200090c2b300cffd070032c0b3000a
:100edc00710e200090c2b300cbfd070022c0b300fe
:100eec00510f200090c2b300c7fd070052c0b300e1
:100efc00910d200090c2b300c3fd0700e2ccb300fb
:100f0c00b10d200090c2b300bffd070032c0b3008a
:100f1c00c10d200090c2b300bbfd070082cfb3000f
:100f2c00d10d200090c2b300b7fd07000041eb00cb
:100f3c00f109200090c2b300b3fd0700c2c3b30097
:100f4c00310a200090c2b300affd07000041eb0056
:100f5c00710b200090c2b300abfd0700c2c3b300fd
:100f6c00b10b200090c2b300a7fd070092c0b300e4
:100f7c00210b200090c2b300a3fd070092c0b30068
:100f8c00a10c200090c2b3009ffd070012c0b3005b
:100f9c008119200090c2b3009bfd070072c1b30001
:100fac00011b200090c2b30097fd07000041eb002d
:100fbc00d11a200090c2b30093fd070052c0b300b9
:100fcc00f10f200090c2b3008ffd070052c0b30098
:100fdc000110200090c2b3008bfd070052c0b3007b
:100fec009119200090c2b30087fd0700b2c1b30075
:100ffc00611a200090c2b30083fd0700e2c3b30066
:10100c00c11a200090c2b3007ffd0700f2c1b300eb
:10101c00711a200090c2b3007bfd07000041eb0069
:10102c000103200090c2b30077fd070002c1b3009a
:10103c001101200090c2b30073fd070002c3b3007e
:10104c00a110200090c2b3006ffd070062c4b30072
:10105c00f103200090c2b3006bfd070000c1eb0050
:10106c001103200090c2b30067fd070032c6b30025
:10107c000104200090c2b30063fd070042c2b3001c
:10108c00e102200090c2b3005ffd07008040eb003e
:10109c0090c2b300defd0700004278000402fb00a2
:1010ac00040f780033ff07003bff070051ff0700d8
:1010bc0000027800040f780059ff0700a000200000
:1010cc0001000700f1ff37000200fa00000f780062
:1010dc000002eb00340888001e0278006e22b90072
:1010ec00040278006408880084e0a9008408800069
:1010fc000440a1000450a1008408880011e1a8005c
:10110c000000000025048000040820000482620016
:10111c00e00f5200fbff320011e1a9000080fa0041
:10112c00000006000200fa00000f78000002eb003d
:10113c00040888009e0278009403200004aab900d9
:10114c00040278001408880005e1a8002408800037
:10115c000440a0000450a000240888008460a9006a
:10116c00000000002404800068026200e00f5200be
:10117c00fcff32008460a90005e1a9000080fa00a0
:10118c00000006000000fa000002eb0004088800d2
:10119c0084ea2d0014088800240880000440a00074
:1011ac000450a000240888008460a9009460a80062
:0c11bc0005e1a8000080fa000000060019
:020000040000fa
:1011c80000080000120000000000000000000000fd
:020000040000fa
:020000040001f9
:0457f800ad7b000085
:020000040000fa
:020000040001f9
:0457fc003f3f00002b
:00000001FF
