:020000040000fa
:080000000002040000000000f2
:020000040000fa
:100008009a0200009a0200009a0200009a02000078
:100018009a0200009a0200009a0200009a02000068
:100028009a0200009a0200009a020000481e00008e
:100038009a0200009a0200009a0200009a02000048
:100048009a0200009a0200009a0200009a02000038
:100058009a020000a61d00009a0200009a02000001
:100068009a0200009a0200009a020000e61d0000b1
:100078009a0200009a0200009a0200009a02000008
:100088009a0200009a0200009a0200009a020000f8
:100098009a0200009a0200009a0200009a020000e8
:1000a8009a0200009a0200009a0200009a020000d8
:1000b8009a0200009a0200009a0200009a020000c8
:1000c8009a0200009a0200009a0200009a020000b8
:1000d8009a0200009a0200009a0200009a020000a8
:1000e8009a0200009a0200009a0200009a02000098
:1000f8009a0200009a0200009a0200009a02000088
:100108009a0200009a0200009a0200009a02000077
:100118009a0200009a0200009a0200009a02000067
:100128009a0200009a0200009a0200009a02000057
:100138009a0200009a0200009a0200009a02000047
:100148009a0200009a0200009a0200009a02000037
:100158009a0200009a0200009a0200009a02000027
:100168009a0200009a0200009a0200009a02000017
:100178009a0200009a0200009a0200009a02000007
:100188009a0200009a0200009a0200009a020000f7
:100198009a0200009a0200009a0200009a020000e7
:1001a8009a0200009a0200009a0200009a020000d7
:1001b8009a0200009a0200009a0200009a020000c7
:1001c8009a0200009a0200009a0200009a020000b7
:1001d8009a0200009a0200009a0200009a020000a7
:1001e8009a0200009a0200009a0200009a02000097
:0801f8009a0200009a020000c7
:020000040000fa
:100208009a0200009a0200009a0200009a02000076
:100218009a0200009a0200009a0200009a02000066
:100228009a0200009a0200009a020000481e00008c
:100238009a0200009a0200009a0200009a02000046
:100248009a0200009a0200009a0200009a02000036
:100258009a020000a61d00009a0200009a020000ff
:100268009a0200009a0200009a020000e61d0000af
:100278009a0200009a0200009a0200009a02000006
:100288009a0200009a0200009a0200009a020000f6
:100298009a0200009a0200009a0200009a020000e6
:1002a8009a0200009a0200009a0200009a020000d6
:1002b8009a0200009a0200009a0200009a020000c6
:1002c8009a0200009a0200009a0200009a020000b6
:1002d8009a0200009a0200009a0200009a020000a6
:1002e8009a0200009a0200009a0200009a02000096
:1002f8009a0200009a0200009a0200009a02000086
:100308009a0200009a0200009a0200009a02000075
:100318009a0200009a0200009a0200009a02000065
:100328009a0200009a0200009a0200009a02000055
:100338009a0200009a0200009a0200009a02000045
:100348009a0200009a0200009a0200009a02000035
:100358009a0200009a0200009a0200009a02000025
:100368009a0200009a0200009a0200009a02000015
:100378009a0200009a0200009a0200009a02000005
:100388009a0200009a0200009a0200009a020000f5
:100398009a0200009a0200009a0200009a020000e5
:1003a8009a0200009a0200009a0200009a020000d5
:1003b8009a0200009a0200009a0200009a020000c5
:1003c8009a0200009a0200009a0200009a020000b5
:1003d8009a0200009a0200009a0200009a020000a5
:1003e8009a0200009a0200009a0200009a02000095
:0803f8009a0200009a020000c5
:020000040000fa
:100400006fa920000e7f22000e018800000000006e
:10041000000020000000e000020032000001200087
:10042000200288000c00070000e7210001002000e6
:1004300011000700000020000000e0000200320070
:1004400000000200000000004e1902000000000041
:100450000040da000000fe004440a9000002200035
:100460000000e0000300320000002000a00188002e
:100470004440a80000000600910188008000780038
:100480000000eb0015003700e280400032a0b4000d
:100490009101ba00e280400032a0b4009102ba009b
:1004a000e280400032a0b4000002eb00472bde00e7
:1004b000f507b200602ce10004003a000059eb009f
:1004c0008301e900fdff3e00040037006128e100e0
:1004d000010032000082eb00040007001101ba00a5
:1004e0000200e000e8ff3a00000006003159ba00bf
:1004f0008301e9000c0032002159ba008301e900b0
:10050000080032000400e00003003a00e2804000ee
:1005100032a0b400f5ff370011d9ba008301e90019
:10052000faff3a008100e800e180400032a0b40008
:10053000000006000040da000000fe000a00fa0099
:10054000e20f500022003e00a4548000e10f520050
:1005500006003200872320004623200024232000a9
:1005600005232000e08f530004003a00872220007a
:10057000462220002422200005222000000028001e
:100580001500600003003a00800b78000700280087
:10059000958a7300054020009482620001003a00b1
:1005a00014a0a000820278000600370094037800af
:1005b0000710b200fdff3200b103fb00070b78000b
:1005c0008502e900e08f5200f8ff3a00080037008a
:1005d00034002000c0bf9f00e2bf9f00b4bf9f0057
:1005e000d1bf9f006a805700e60607006fb99700e9
:1005f000020078000080fa00000006004f89de004b
:100600008201780000003700881f7800030478001a
:100610000300e00007003d0060001000e0801800cb
:1006200060011900e081190002003b0001f02d007b
:10063000030037000400070008f0a70001f0a00045
:100640004f04780000000600889fbe008a9fbe000d
:1006500000827000040271000482710026003200e2
:100660000004be000200be006011b8006b0920004b
:10067000950220000182cf000a0039000541b10037
:100680000082cf00070039000541b1000982cf0088
:10069000040039000541b1000882cf000100390093
:1006a0000541b10005425200120032000a003b0031
:1006b00082817100610164008100d1000080d3005b
:1006c0008984d3000884d3008b05e8000442e80045
:1006d000f7ff3a00070037000804440089844c0003
:1006e00000004800818048008b05e9000442e900d1
:1006f000f9ff3a00030007004f05be004f04be009b
:100700000000060081002000618055000b003d00c4
:100710000b00200061fe2f000100e1001d003400ed
:1007200082817100610164008904d1000884d300d2
:100730000000e800faff3a00710020006100640048
:1007400003007000020060000900320061044400f0
:10075000e0844c000988a500050032008b05e80004
:100760006808e10002003a008904d1000884d3003f
:10077000f20f20000258e10005003d00c75ddd00da
:10078000f907b200898075000800780000000600b3
:100790000bf827008b007800000005000c00fa0021
:1007a000889fbe00f4ff270000047800d4bf9f009c
:1007b0008004eb0088bf9f0099bf9f00a8bf9f00e7
:1007c000240c200078815700b4bf9f00cfb0970061
:1007d00070805700c40007000fba9700094a7800dc
:1007e0000fba9700080052004f04be000080fa00c4
:1007f00000000600d4c6b3000800fa00889fbe00bf
:100800000084fb008a9fbe00844f500034003600f5
:10081000099020004b062000110009000b84d8002d
:10082000720040004300dd00008044008105780034
:100830006022b8000600200007fe2300aa00200066
:100840005001be004000be00280807000002be00a4
:10085000110009008a85d80080057800e9854500e7
:10086000c35ddd008b8544000203be0084bf9f0092
:1008700095bf9f00a6bf9f00b7bf9f003b02be0071
:100880002b03be000fb897009fb897002fb99700b1
:10089000bfb99700150807000002be00110009004b
:1008a0000a84d800010478004344dd0088844400b1
:1008b0000203be0084bf9f0095bf9f00a6bf9f009c
:1008c000b7bf9f003902be002903be000fb89700d2
:1008d0009fb897002fb99700bfb997001d00370048
:1008e000ea4f500013003600aa00200009902000b3
:1008f000110009000a84d80001057800690440004d
:100900004355dd004344dd00088444008a844400ec
:100910006022b8000600200007fe23003800be0059
:100920002801be00f10707003902be002903be00fe
:1009300008003700049020004344dd000804420012
:100940006022b8000600200007fe23003800be0029
:100950002801be00e50707004f05be004f04be009a
:100960000080fa0000000600d4c6b3000800fa00b8
:10097000889fbe008a9fbe00e04f500022003d00cd
:100980000040ea000004fb00844f50000a003400dd
:1009900044062000a9002000110009000404d8002a
:1009a0000a902000110009008900d800e9004000e9
:1009b000c308dd0020003700ea4f50000f0034006c
:1009c000a4002000110009000404d80004902000b5
:1009d000690040004300dd0000004200430cdd00e0
:1009e000080242005001be004000be005403be0099
:1009f0004402be00bd070700370037004344dd0056
:100a000004902000310037000004fb00844f5000a8
:100a10002300340044062000a90020001100090032
:100a20000404d8000a852000110009008900d800bc
:100a3000e9004000c308dd00810045008b0920006b
:100a40008a8545003102be002103be003b00be0086
:100a50002b01be00a50707000002be00110009001f
:100a60000904d800010478004344dd00080545006e
:100a70000203be0084bf9f0095bf9f00a6bf9f00da
:100a8000b7bf9f003a02be002a03be000fb897000e
:100a90009fb897002fb99700bfb99700d5ff3700cf
:100aa000ea4f500007003400a400200011000900a4
:100ab0000404d80004852000690040004300dd00e4
:100ac000c5ff37004344dd000485200008044200d0
:100ad0003800be002801be004f05be004f04be0016
:100ae0000080fa0000000600ef04b000889fbe00fe
:100af0008a9fbe008c9fbe00000678008e1f780083
:100b00008006eb0091a79f00e2a79f006000b8005d
:100b10006011b800a0a79f00b1a79f00c2a79f00c7
:100b2000d3a79f00050537009fa0970054c2b300cc
:100b30008100e80091a79f00844f500006003a0012
:100b4000810378000002eb0000c3b30001c2b300d0
:100b5000b2c2b3000e0037003c0290000404b200a1
:100b6000040032001c027800004a7800040ee800fd
:100b7000050037000000fb008c007800fb04070034
:100b8000e10f4000ed0432008d06e800eb04370071
:100b900087027800d3c2b30037437800834f5300f5
:100ba0000900320005003c00814f5300080032006c
:100bb000824f53000c003a0007003700804f53006b
:100bc00009003a00060037000430a000f0ff3700ab
:100bd0000400a000eeff37000410a000ecff370077
:100be0000420a000eaff3700e203620001003200a7
:100bf0000400a100e8036200010032000420a1000b
:100c00008603fb000703b100e98f53000d003e008f
:100c1000050378000000eb00b602fb006a00b90093
:100c20000503b1009603fb00008042000703b100fa
:100c300086027800e98f5300f7ff3600b0af9f00bf
:100c40000a0037008003eb00b7af9f00a7c2b300d4
:100c5000874f530005003a006fa097008502e80017
:100c6000c0007800e0a79f00b1af9f00e6c2b300cc
:100c7000954f130017003a0004e0a00064435300ae
:100c8000d54f130003003200050378000000eb008d
:100c900009003700efa197008502e80043037800c0
:100ca000e3a79f00f6af9f00c0c6b3000d0037005a
:100cb0006a00b9000080430086027800b603fb009a
:100cc0000703b100e98f5300f9ff3600f0af9f0032
:100cd000f5ff37008003eb0004c0a000f7af9f00d2
:100ce000f1ff37003543780095a79f00804f5300f0
:100cf00016003200c5c6b300854f530009003c0002
:100d0000e9c25200854f530080003200e3c2420026
:100d1000854f530013003200e04f53008c04320023
:100d20009b00370055c7b300854f53009d0032002c
:100d3000e3c24200854f53000d003200e5c252006d
:100d4000854f530092003a000c003700f003620018
:100d50000601200001003200060028000402730092
:100d6000e0ff3700e6679f0004a0a0008f00370077
:100d7000e6679f000470a0008c0037006fa1970009
:100d8000e6679f00c2027800e2a79f000504780092
:100d9000e08f520001003a0048a7200008037800c5
:100da0008002eb00010037008502e800e6c37a000c
:100db000e0cf5300fcff3a0085047800ffa99700bc
:100dc000e08f510003003200898f51000100310093
:100dd000830478000007eb003fab9700890f5300b6
:100de000010036000907530068026200b4b79f0093
:100df0002a003a0004c2b30010003700bc02900081
:100e00000504b200040032009c027800844a780095
:100e1000050ee8000700370084bf9f008c007800b3
:100e200000022000510407000fba9700e10f4000b4
:100e3000010032008d06e8000e07e900e00f5700c0
:100e4000eeff3a000087eb00140037003c029000f0
:100e50000404b20009003200080278001c03780084
:100e6000b4427800054b780004047800060ee800d0
:100e7000e0cf520008003a0008003700080278006e
:100e80008c0078003400fb0004047800370407006d
:100e9000e10f4000010032008d06e80009027800f1
:100ea0008404e900e00f5200e8ff3a00bfb3970066
:100eb00004c2b300e08f530011003a001f04370052
:100ec000bc0290000504b200040032009c027800cd
:100ed000844a7800050ee8000700370084bf9f00b1
:100ee0008c00780000022000200407000fba970051
:100ef000e10f4000010032008d06e8000e07e90016
:100f0000e00f5700eeff3a000c0437006fa0970087
:100f100070036200c0027800e0a79f00050078001f
:100f2000cf80de000101780082017800b0b79f0019
:100f3000c1b79f00d2b79f00e3b79f004800de0013
:100f4000c80add0000807200e0679f00e00f5300d8
:100f500009003200e04f500007003200e14f40002e
:100f6000050032006fe39700f0679f00866f9f00d7
:100f70002900200003003700efe39700190020004c
:100f8000f7679f0078fa2f000f0444008bff3700ab
:100f9000e6679f0068fa2f000f0444001900200044
:100fa00086ff3700e6679f00040cb300b4b79f00cc
:100fb000047020003fb0970004026000420232003b
:100fc00004002100040260000200320061002000e1
:100fd000f1af9f003fb19700700261000500320041
:100fe0006fa097004003be004002be00e0a79f0034
:100ff000060037006fa197004200be00e2a79f00e5
:101000008d0507000002be000203be00f4a79f008a
:1010100085af9f0096af9f00a7af9f006022b800ea
:101020006033b8007fa097008fa897001fa9970092
:10103000afa99700d2040700e00f50000c003d005c
:101040007fa097008fa897001fa99700afa99700ce
:1010500003f0a200f0a79f0081af9f0092af9f0016
:10106000a3af9f00bfb097003100b300b1b79f009e
:101070000002eb007fa097008fa897001fa99700a0
:10108000afa99700d4979f006022b8006033b800e2
:101090001f050700e00f500034003200a4fa2f00b3
:1010a0000f0242007fa097008fa897001fa997000a
:1010b000afa99700db0507005f909700a400200010
:1010c0000000e9006300b900110009000400d80025
:1010d000d0979f00e00f500002003d000000e900a3
:1010e000d0979f005f9497000840ea001efe07001b
:1010f0007fa297008faa97001fab9700afab970016
:10110000fa0507000002be000203be00a4a79f006c
:10111000b5a79f00c6a79f00d7a79f006022b80071
:101120000600200007ff230095040700e00f500091
:1011300002003d000804e9000b0037006022b800ff
:1011400006002000470224002fa09700bfa09700b0
:101150004fa19700dfa197008e040700e00f500019
:10116000020035000804e800d8979f00ffaa970006
:10117000f88f52000f003c00054078009dfd0700ed
:101180000002be000203be007fa097008fa8970058
:101190001fa99700afa99700fc0307000002be003b
:1011a0000203be00f4a79f0085af9f0096af9f008b
:1011b000a7af9f005f949700e90f540015003c0013
:1011c0006022b8006033b8007fa097008fa8970016
:1011d0001fa99700afa99700cd040700e00f5000aa
:1011e000320032007fa097008fa897001fa99700b8
:1011f000afa997002f050700e00f5000e08f5800bf
:10120000e00f5900e08f590028003a00e10f540028
:10121000260034000400200005002e00b6e0220065
:10122000170124002fa09700bfa097004fa197009f
:10123000dfa1970052040700e00f500002003d00bc
:10124000730454000100370072045400d8979f00c3
:101250002f689700c4fd07000002be000203be0015
:101260007fa097008fa897001fa99700afa99700ac
:10127000a4a79f00b5a79f00c6a79f00d7a79f0060
:10128000490407000b0507000205be000004be006c
:101290006000b8006011b800f0a79f0081af9f0008
:1012a00092af9f00a3af9f00170037007fa0970069
:1012b0008fa897001fa99700afa99700fd0407000a
:1012c0000205be000004be002b0507000002be00a0
:1012d0000203be007fa097008fa897001fa9970068
:1012e000afa99700f60507000002be000203be008a
:1012f000f4a79f0085af9f0096af9f00a7af9f0008
:101300000002eb00d4979f00819b200010c0b30027
:10131000080037003102be003103be000440e10086
:1013200005c8e10006d0e10007d8e100030039005c
:101330000040e800f44f5000f6ff3a00e0679f00dd
:101340005f929700bfaa97007fab9700048252007c
:101350000000fb000602520000075200e00f53009d
:10136000010032000e07e900bfb3970063826300fb
:10137000010032000e07e9003fb0970064026000f0
:101380003b00320062026000e1026000e00f5200a8
:10139000110032003c0290000404b2000800320048
:1013a0001c037800b4c2b300e08f52000100320089
:1013b00004c2e800044b7800060ee8001500370070
:1013c000b0022000e08f5200010032000080e800ef
:1013d0008c0078000c003700e08f520020003200b3
:1013e0003c0290000404b200050032009c02780028
:1013f00004c2b300844a7800050ee80005003700f7
:101400008c00780000022000d8020700e10f4000a5
:10141000130032008d06e800110037003c029000f6
:101420000404b200040032001c027800054a78006f
:10143000040ee80007003700f5b79f008c00780025
:1014400000032000c9020700ffb29700e10f40002f
:10145000010032008d06e8000e07e90001003700a8
:1014600005c3b300e00f5700ecff3c0065003700f8
:10147000bfb097006882600015003a001100370085
:101480003c0290000404b200040032001c02780008
:10149000054a7800040ee80007003700f5b79f0002
:1014a0008c00780000022000b0020700ffb2970015
:1014b000e10f4000010032008d06e8000e07e90050
:1014c0000100370005c2b300e00f5700ecff3c00fd
:1014d0003fb1970062026100e1026100e00f52003b
:1014e000110032003c0290000404b20008003200f7
:1014f0001c037800b4c2b300e08f52000100320038
:1015000004c2e800044b7800060ee8003c003700f7
:10151000b0022000e08f5200010032000080e8009d
:101520008c00780033003700e08f52003500320025
:101530003c0290000404b200040032009c027800d7
:1015400004c2b300844a7800180037008c00780089
:1015500000022000270037003c0290008502fb00bb
:101560000404b20013003200049b2000c32add00f3
:10157000850242009c0178005503be004502be0072
:10158000b3af9f000800be000a01be000f060700af
:10159000a4002000050020006033b80012060700f8
:1015a00006c3b300bfaa9700864a4000050ee800b4
:1015b00013003700079b2000c32add00858243000b
:1015c0000800be000a01be005503be004502be0071
:1015d000fe050700a4002000050020006033b800cd
:1015e000010607008c00780004032000000242007e
:1015f000040078005d020700e10f400001003200a6
:101600008d06e8006f6297008442e900e5679f005d
:10161000e04f5200d0ff3a00110037003c0290002a
:101620000404b200040032001c027800084a78006a
:10163000040ee800050037008c007800000320004d
:101640004a020700e10f4000010032008d06e80069
:101650005f9297000402e900d4979f0001003700d1
:1016600008c3b3005f929700e00f5200ebff3c000d
:101670007fa89700f20f50000300340024c1b3008c
:10168000e4679f0002003700efd89700e1679f00f2
:101690006f6297007fa997008402fb0085025100ca
:1016a000b5af9f00e04f52000e0032003c029000a8
:1016b0000404b200050032001c027800e5c2b30049
:1016c000054a7800040ee800050037008c00780019
:1016d000e002200025020700e10f40000100320077
:1016e0008d06e8006f6097009ffc07000002be00b7
:1016f0000203be007fa097008fa897001fa9970044
:10170000afa9970079040700ea0307003500370006
:101710003c0290008502fb000404b200130032007a
:10172000049b2000c32add00850242009c01780052
:101730005503be004502be00f3af9f000800be0087
:101740000a01be00a1050700a4002000050020003a
:101750006033b800a4050700ffaa970006c3b300d2
:10176000864a4000050ee80013003700079b200062
:10177000c32add00858243000800be000a01be00c6
:101780005503be004502be0090050700a4002000de
:10179000050020006033b800930507008c00780036
:1017a000040320000002420004007800ef0107005b
:1017b000e10f4000010032008d06e8006f609700e5
:1017c000019b20000002fb004322dd000482400058
:1017d0000800be000a01be005403be004402be0061
:1017e000810507006f6297000205be000004be007d
:1017f0008442e900e5679f00e04f5200c4ff3a00d1
:1018000011003700bc0290000504b2000400320051
:101810009c027800844a7800050ee8000700370033
:1018200084bf9f008c00780000032000cf010700d8
:101830000fba9700e10f4000010032008d06e8006a
:101840008904e90006003700bfac9700f0af9f00a5
:1018500081b79f0092b79f00a3b79f0004c3b30056
:10186000e08f5400e7ff3a00bfb097006882600045
:10187000b2013200e00f5700b001340004c2b300df
:10188000bc0290000504b200040032009c02780003
:10189000844a7800050ee8000700370084bf9f00e7
:1018a0008c00780000022000b00107000fba9700fa
:1018b000e10f4000010032008d06e8000e07e9004c
:1018c000efff3a009d0137003fb19700e00f510054
:1018d00005003d00efa197004305be004304be0094
:1018e000e3a79f00150037003fb39700f0026300a5
:1018f0000c0032006fa197004200be00a49f9f0021
:10190000809f9f00919f9f00b49f9f00e2a79f0030
:101910000f9c97009f9c97002f9d9700bf9d97005d
:10192000060037006fa2970044047800e4a79f00e8
:10193000090020000a0020000b002000ffaa9700e9
:10194000e08f520009003a0016002000f6af9f0019
:10195000e00f5400e08f5c00e00f5d00e08f5d0061
:10196000020032008003eb00f7af9f003fb097000a
:1019700004082000000cb200f0a79f00840f500064
:1019800010003200040c2000840f500021003a00a7
:10199000859b200014c0b3003500be003501be0099
:1019a0000040e10001c8e10002d0e10003d8e100fd
:1019b000170039000442e800f44f5200f6ff3a00e5
:1019c0001300370014c0b300000120000100200004
:1019d0006011b8000040e10001c8e10002d0e10060
:1019e00003d8e1000a003900450020000000d000c3
:1019f0008180d2000281d2008381d2008502e90079
:101a0000faff3a000442e800f04f5200f1ff3a00ba
:101a1000e4679f006f639700ffab97000602fb002f
:101a2000870f520002003d00e7679f000400370067
:101a30007fa89700840f500001003d00f4af9f0085
:101a4000bfa89700e08f5000050032003fb197001b
:101a500063026100020032008100e900b1af9f0023
:101a600004002400bfb19700048261000900320025
:101a70003faa9700ffaa9700850f52000300340089
:101a800005025200b4af9f00020037000003eb00d4
:101a9000b6af9f00ef6397000007eb000702fb0063
:101aa0003fa89700840f5000010034000407500045
:101ab000bfb09700648260003a003200e2826000aa
:101ac00061826000e08f520011003200bc02900081
:101ad0000504b200080032009c027800b6c2b300d0
:101ae000e00f52000100320006c3e800864a780089
:101af000050ee80015003700b0022000e00f52008c
:101b0000010032000080e8008c0078000c003700f3
:101b1000e00f52000e0032003c0290000404b200bc
:101b2000050032001c02780005c2b300054a7800a7
:101b3000040ee800050037008c0078000002200049
:101b40000a010700e10f4000010032008d06e800a5
:101b5000e00f57005000320004c3b300bc029000f5
:101b60000504b200040032009c027800844a780028
:101b7000050ee8000700370084bf9f008c00780046
:101b800000032000f90007000fba9700e10f4000a2
:101b9000010032008d06e8000e07e900efff3a0071
:101ba0003d003700e00f5700150032003fb19700ad
:101bb0006802610012003a0004c2b300bc02900047
:101bc0000504b200040032009c027800844a7800c8
:101bd000050ee8000700370084bf9f008c007800e6
:101be00000022000e10007000fba9700e10f40005b
:101bf000010032008d06e8000e07e900efff3a0011
:101c0000bfb19700e282610061826100e08f520003
:101c100011003200bc0290000504b200080032003e
:101c20009c027800b6c2b300e00f520001003200ff
:101c300006c3e800864a7800050ee8001500370064
:101c4000b0022000e00f5200010032000080e800e6
:101c50008c0078000c003700e00f52000e003200bc
:101c60003c0290000404b200050032001c0278001f
:101c700005c2b300054a7800040ee80005003700ed
:101c80008c00780000022000b8000700e10f40003f
:101c9000010032008d06e8007faa97000e00780050
:101ca0008402e900bfb39700422bdd00049b2000b3
:101cb000c32add00f083630004824200c69f9f00b8
:101cc000f7979f00e0979f0004077800b8af9f0048
:101cd000c9af9f00daaf9f00ebaf9f007c003700d9
:101ce000ffaa9700040820008502e9007fa397005f
:101cf000f5af9f00840f530050003200040c200009
:101d0000840f53005d003a00bfb39700e08f53008b
:101d10001a003d003e04be002e05be003fa89700fd
:101d2000cfa897005fa99700efa997000802be000f
:101d30000a03be00250407000802be000a03be0015
:101d4000e0679f000000fb00cf80de00010178000b
:101d500082017800860407003faa9700cfaa970067
:101d60005fab9700efab97000002520081825a00f0
:101d700002035b0083835b001f003700ff92970024
:101d8000e08f5200210032003faa9700cfaa9700af
:101d90003e04be002e05be000400be0084bf9f00ae
:101da000f5b79f000801be00470307000801be0009
:101db000e0679f000000fb00cf80de0052030700b9
:101dc0000fba9700ffb297000003520081835a00b8
:101dd0000000eb00d69f9f00e79f9f0080a79f0019
:101de0008003eb00f79f9f005f9a9700ef9a9700a0
:101df0007f9b97008fa39700b4af9f00c5af9f0054
:101e0000d6af9f00e7af9f00080037001e027800a2
:101e1000bfaa9700110009008482d800a400200006
:101e2000110009000480d800e1679f006f639700ec
:101e30000643b000e6679f00100037003faa9700f6
:101e4000cfaa97005fab9700efab97004f98970032
:101e5000b1a720000000e900050033008703d1008e
:101e60000683d3008582d3000482d300f9ff3700b4
:101e70006f02620061427a00e4679f003c029000ba
:101e80000404b200070032009c0278006f629700e1
:101e9000844a7800050ee800e04f520007003a003f
:101ea000070037006f6197008c0078000200fb008c
:101eb0002e000700e10f4000010032008d06e8000f
:101ec000cf999700e4815100c39f9f006807570096
:101ed0007faa9700e00f520081ff3a00bfb297003f
:101ee0006f9797006882620014003200e00f57007d
:101ef0001200340004c2b300bc0290000504b2001a
:101f0000040032009c027800844a7800050ee80044
:101f10000700370084bf9f008c007800000220007b
:101f2000120007000fba9700e10f400001003200d5
:101f30008d06e8000e07e900efff3a001fa39700a7
:101f400016407800e0679f00e04f5000f6fa3a0034
:101f50004f0778000d0078004f06be004f05be0009
:101f60004f04be00ef04b10000000600889fbe00d1
:101f7000010478008084eb0038029000e2026200e5
:101f80003b00320004037800980290000620b20063
:101f900002003a00e08f520035003a000490a000a1
:101fa0008004780034049800f90fb200e08f5200ea
:101fb00002003a00a8029000050c7800ea8f540055
:101fc00005003a000408b20003003a0088007800d7
:101fd000d0002000e5ff070018029000d802900012
:101fe000850f52000b0032000402e80015c0b30058
:101ff0001404980018027800094a7800040ce800dc
:10200000e4a82000054a7800ea8f540018003a003e
:1020100005003700094078008800780017000700a5
:102020008004780012003700380290000410b200db
:102030000f00320018019000a800900048009000a6
:102040003ef9070018029000840f5000040032008f
:10205000380290000403b300340498008084eb003d
:102060000002eb001404980028029000040c780091
:10207000090078004f04be00000006000200fa00cc
:10208000889fbe0001047800a0ff9f0038029000e6
:10209000840278000504b200020032000000fb0058
:1020a00035003700e202620005003a000403b30085
:1020b00015049800340498000080eb002e003700cf
:1020c000d8049000e08f540006003a00120020006f
:1020d000e68057004800900018f90700190498009e
:1020e00023003700a8029000e08f520008003a0059
:1020f00025a920000430a00025049800050c7800d4
:102100003404980025002000550498001504980018
:1021100018019000a80090004800900007f90700ff
:10212000280290008082eb0015049800affa970017
:10213000054a7800040ce8002ffa9700ea4f520095
:102140000b003a00380290000410b2000800320080
:1021500018019000a800900048009000f7f80700d0
:102160000002eb00a802900014049800050c78000f
:102170002ffa97000400fb004f04be000080fa0015
:102180000000060000c0da00000006002800fa0087
:10219000889fbe008a9fbe008c9fbe000706780005
:1021a000878669000c003b000304780087047800f0
:1021b00008f0a10009f0a100840f5000858f58009d
:1021c000860f5900890f5c00030033000cf0a20059
:1021d00001003a000cf0a100fe0007006400e100dd
:1021e0005f003200780147006408e10061003200be
:1021f0006c014700748557003200be001201be001a
:102200003a04be001a05be001e039000be0a9000ec
:102210008503530006003d000004fd008104fd001d
:102220000205fd008305fd008703ea000503780031
:102230000df8a3000400320060041400e0841c00c8
:1022400060051d00e0851d006022b8007d032000b0
:102250000d38e1008006eb000b0039004433dd004f
:10226000f300b200830173003900370084827200ea
:102270000d027800e10664008b85d1000a85d30049
:102280008984d3000884d3008703e900f7ff3b006b
:1022900008004000898048000a0149008b814900fc
:1022a00004003b0060001000e0801800600119008d
:1022b000e08119000358a300090032008d827200ea
:1022c00084827200610260008301d1000281d30028
:1022d0008180d3000080d3000603e8001b00370094
:1022e0000348a30017003a000600e000170034007e
:1022f0000603e9000d00a3000000480081804800ab
:1023000002014900838149000348a3000f003a00fd
:102310000600e000090034000603e9000000400068
:1023200081804800020149008381490001003a0090
:102330000003eb000348a300f5ff32006022b80061
:102340000200370084827200618266007500070017
:1023500003f0a1000cf0a70003f0a000b1003700cb
:10236000640147006408e10002003a000df8a30090
:10237000a9003a003200be001201be00a9003700d9
:102380008f1fd100230307008f87e9000000e000c2
:1023900000000600809feb001e0307008f87e90006
:1023a0000000e000000006002800fa00889fbe0040
:1023b0008a9fbe008c9fbe0003866b0085000700cd
:1023c0006400e100440032006408e1004a00320089
:1023d0006100e100460032006108e100490032007e
:1023e000ec0647006000b8003d02be003d03be00a1
:1023f000f48657006011b8003d04be003d05be00e4
:102400007d0320000b0037000000a0008d06e900ce
:10241000130032000402420085824a0006034b008a
:1024200087834b0000004000818048000201490082
:10243000838149000802520089825a000a035b0026
:102440008b835b00f0ff3b000802420089824a0058
:102450000a034b008b834b008d06e900edff3a0029
:102460008482720086827200f707b200878272004f
:1024700001003200150020001e0490003e0b900069
:1024800006035400e63fb0000368a30007003200d3
:102490000000a7000500a0008301d1000281d30045
:1024a0008180d3000080d3000603e8008301d100bf
:1024b0000281d3008180d3000080d3000002eb00b2
:1024c0000482d2001700070003f0a1000cf0a7005f
:1024d00003f0a00053003700640247006408e100e5
:1024e0004d0032003400be003401be00f6ff37005c
:1024f0006108e100480032006011b8006000b800d7
:10250000f1ff370003ff270002002000fbff370028
:10251000801feb00bf0207008f87e9000000e0008a
:102520000000060018002000570020000804530097
:102530000d003d000600200097fc2f000740e10041
:102540001e00340084827200610260008301d100a9
:102550000281d3008180d3000080d3000804e8000a
:10256000f8ff3a0047002000610460000504740091
:10257000040464000d00320061004000e080480067
:1025800060014900e081490003b8a500070032005e
:102590000603e8006538e10004003a008301d10039
:1025a0000281d3008180d3000080d300f87f200017
:1025b0000830e10003003500080378006000b8002f
:1025c0006011b8004433dd00f300b20083017300f2
:1025d00000000600680447000294be000094be009c
:1025e000fc0447008694be008494be000900780075
:1025f000d102070008007800cf0207009900780098
:10260000814f70000b003b000800be00aa020700cb
:102610004f00b10003003700f3ff2700f2ff2f0047
:102620006110b9004f06be004f05be004f04be004a
:102630000080fa0000000600810378009600070081
:102640000001be006000b8000478a30013003a0047
:102650006220e10015003e000d0039008301d10029
:102660000281d3008180d3008301d1000281d30095
:102670008180d3008301d1000281d3008180d30007
:102680000538b000c42add00f300b2008381720077
:1026900007f0a70003f0a00000000600f3ff2700ea
:1026a000f2ff2f006110b900fbff370003ff270086
:1026b000f7ff37001400fa00889fbe008a9fbe0013
:1026c0008c9fbe000004be000205be0068004700eb
:1026d0000a90be000890be00970207000070a70095
:1026e0000bf0a1000bf8a30020003a009e09900017
:1026f0000e099000fe0090006e0090009e02900077
:102700003443200084825200c6ff32000a003c009d
:10271000b4fc2f000428e100140034008301d10030
:102720000281d3008180d3000080d3008502e800bd
:10273000faff3a00bbff3700b40020000428e10094
:1027400007003c0000004000818048000201490071
:10275000838149008502e900faff3a00b1ff3700a2
:102760000300280002002000010037006011b800bb
:102770006000b800abff3700889fbe000082700089
:1027800004027100048271002400320036432000ec
:10279000c50020008383cf000a0039000541b10045
:1027a0008283cf00070039000541b1008183cf004b
:1027b000040039000541b1008083cf0001003900d9
:1027c0000541b10085c353006022b80012003200f9
:1027d0000a003b0084827200610260008301d10024
:1027e0000281d3008180d3000080d3000603e8007b
:1027f0008743e800f7ff3a00070037000000400079
:102800008180480002014900838149000603e900f4
:102810008743e900f9ff3a0042ff07004f04be007a
:10282000000006001400fa00889fbe008a9fbe00c8
:102830008c9fbe00040678000004be000205be00a6
:10284000680047000a90be000890be003a020700e8
:102850006200e1000800be000a01be000400200082
:102860000b003a001e029000e43fb1006e009000a1
:10287000fe0090000e0990009e099000f300b20047
:1028800005fe2300858171000bf0a70003f0a00076
:10289000040e780063ff3700c70ade00f107b200bc
:1028a000f50fb20008003200e1cf42000200320012
:1028b0000170a00024000500810f700001003200ab
:1028c0000408050044000500810f700002003a0072
:1028d000140005008502e9000000400081c04800a6
:1028e000fcff3b000170a000240005002800fa0056
:1028f000889fbe008a9fbe008c9fbe0003866b002f
:1029000034ff07000028a30064003a000128a30058
:1029100067003a000008a30062003a000108a30023
:1029200065003a001e009000be089000810640003d
:10293000ed3fb100f4805700ee019000111ab8008d
:102940008e099000311bb8009e099000311cb80020
:10295000511db800f485570046000700fe019000a5
:102960003a0007008b85e8003e0007008e099000c2
:1029700040000700ee019000340007008b85e8005e
:10298000380007008e099000400007009e09900063
:102990001b18b800890440000a854800fe01900019
:1029a000340007008b85e80038000700ee01900036
:1029b000300007008e0990001b18b8008904400001
:1029c0000a8548000a98a30008003a000402420061
:1029d00085824a0006034b0087834b0008044c00a5
:1029e00089844c000a054d008d06e900848272003e
:1029f000850273004c3add0085027200010032004e
:102a000015002000443ade001400b2004538de0014
:102a1000cb45dd000b007000c540de00cb4ddd0076
:102a20008b8070004549de00cb55dd000b01710045
:102a3000c551de000d037800bafe070003f0a100c7
:102a40000cf0a70003f0a000f6fe37001b18b8003a
:102a50008502400006834800e0834b0060044c0080
:102a6000070037001b18b8000603400087834800a2
:102a7000faff37001b18b80087034000088448009d
:102a8000e0844c0060054d00000006001b18b800f3
:102a90000804400089844800faff37000108a300b9
:102aa000ddfe3a005800be005801be00e3ff3700cb
:102ab0000008a300d8fe3a0009047800f9ff3700a7
:102ac00007f0a200b1fd37006022b8000602200026
:102ad0000000d0008180d2000482d2008582d20022
:102ae0000000a0000202520083825a00030031005d
:102af0000202420083824a000000a1000603e900ae
:102b0000f3ff3a0000000600020ab900001bb900fa
:102b10000200b8008100420081004300000006006e
:102b2000889fbe008a9fbe003004be002005be0004
:102b30000404440085844c0006054d0087854d0043
:102b40000898be000a90be000440e10005c8e100fc
:102b500006d0e10007d8e100020031006800400023
:102b60001008e8004f05be004f04be00000006003c
:102b70001000fa00889fbe008a9fbe00110020004e
:102b80000605be000404be003002be002003be00e5
:102b9000c4b79f00d5b79f00e6b79f00f7b79f0067
:102ba0000802520089825a000a035b008b835b0093
:102bb00084bf9f0095bf9f00a6bf9f00b7bf9f0027
:102bc0000498be000698be004fb29700dfb297008f
:102bd0006fb39700ffb397000820e10009a8e10058
:102be0000ab0e1000bb8e100010039008000eb0001
:102bf0004f05be00108810004f04be000080fa0090
:102c0000000006001400fa00889fbe008a9fbe00e4
:102c10008c9fbe000006eb003e000700ccb79f0073
:102c2000bcb79f00acb79f009cb79f008cb79f00bc
:102c30000605be000404be000d0420004fb397003b
:102c4000bfb29700860343002fb29700e00f5300f6
:102c500004003d003d0007000f004000b0ff0700ea
:102c600003003700390007000f004000c0ff0700d5
:102c7000cfb2970095bf9f00e08f5200090035004a
:102c80002b00070014002000050020006033b8006e
:102c90000000720081807200020173008381730062
:102ca0001c0007000c06e8008d0f5600e3ff3a00f9
:102cb0001fba9700e00f520005003d000802be0059
:102cc0000a03be0000fe2f000f00400094ff070023
:102cd0004faa9700e00f520008003a000fb4970087
:102ce0009fb497002fb59700bfb59700d8b79f0046
:102cf000e9b79f00fab79f008bbf9f000c00070049
:102d00004f06be004f05be004f04be000080fa0013
:102d100000000600010007000000060090b79f00b9
:102d2000a1b79f00b2b79f00c3b79f000000060085
:102d300001000700000006001fb09700afb0970029
:102d40003fb19700cfb19700000006004f2bde0087
:102d5000f9ff070086837300858242004f23de005f
:102d6000a7b79f00868272000402420095b79f00b9
:102d7000ffaa97004f2bde008582420006027200f8
:102d800084b79f006faa97004f23de000402420021
:102d900086827200f5af9f004f18de0000027200bd
:102da000e5ff0700e4af9f0000004000818048007d
:102db00002014900838149000802be000a03be00e7
:102dc000d6ff070000fe2f0000000600881f7800d5
:102dd00018002000881f78008aff07008f87e9000d
:102de0004f04780000000600801feb0085ff0700fd
:102df0008f87e90000000600889fbe008a9fbe0002
:102e0000e00f5000e08f5800e00f5900e08f5900ac
:102e10000c003d006044b8006055b800000054004c
:102e200081805c0002015d0083815d00180020004c
:102e30001500070008003d00180007000004eb0023
:102e4000050037000004eb000f00070002003d0002
:102e50001200070018002000dcff0700e00f5400fc
:102e6000060032006022b8006033b8000000520053
:102e700081805a0002015b0083815b004f05be0028
:102e80004f04be0000000600e00f5200e08f5a0021
:102e9000e00f5b00e08f5b00000006006044b800bc
:102ea0006055b8000402540085825c0006035d0092
:102eb00087835d0000000600889fbe008a9fbe00d9
:102ec0008c1f7800e00f5000e08f5800e00f590091
:102ed000e08f59000d003d006044b8006055b80017
:102ee0001c0020000000540081805c0002015d0095
:102ef00083815d000820e10009a8e1000ab0e1003b
:102f00000bb8e1000d003d00080037000006eb00a3
:102f1000e00f5200e08f5a00e00f5b00e08f5b0093
:102f200006003d006044b8006055b800040254003b
:102f300085825c0006035d0087835d00aaff0700b1
:102f4000e00f5600060032006022b8006033b8007f
:102f50000000520081805a0002015b0083815b0007
:102f60004f0678004f05be004f04be00000006006b
:102f7000889fbe008a9fbe008c1f78000006eb0071
:102f8000e00f5000e08f5800e00f5900e08f59002b
:102f900007003d006044b8006055b8001c002000e8
:102fa0000000540081805c0002015d0083815d00af
:102fb000e00f5200e08f5a00e00f5b00e08f5b00f3
:102fc00007003d006044b8006055b8000c00a20046
:102fd0000402540085825c0006035d0087835d0067
:102fe0007c000700e00f5600060032006022b800a7
:102ff0006033b8000000520081805a0002015b007b
:1030000083815b004f0678004f05be004f04be0071
:1030100000000600889fbe008a9fbe008c9fbe00f5
:103020000404be000605be00809fbe00829fbe0055
:103030002f000700040678000800be000a01be0049
:103040002b000700840678004f03be004f02be002d
:103050008d4f76007fb0970013003300f0ff2f00f4
:103060008b8f6b0006003b000d0666000c00a7006e
:103070000a00370007f0a600100020000a00370001
:10308000880f5200898f5a008a0f5b008b8f5b007c
:10309000030039001000200001003e000000200065
:1030a00007f0a7000000ea004f06be004f05be0073
:1030b0004f04be0000000600e48240001078a30028
:1030c00007003200640240001178a3003400be0003
:1030d0001401be00040032000330a7000000060007
:1030e0003500be001501be000330a0000000060040
:1030f00005ff270005826100070032000428e10077
:1031000001003200240005000600070001003a001b
:10311000440005000408050002000700f9ff3a001a
:10312000140005006f826100810270008502710049
:103130008502720000000600800078005002be0088
:103140005003be004439de00f700b200f37f2000d8
:1031500003016100090032000218e10016003a0084
:1031600085017200830173008381730000082000d1
:1031700015003a004000200013003700850172005e
:10318000830173008381730005003a0004a8be0028
:1031900006a8be00100020000b0037000201e90065
:1031a0000402420085824a0006034b0087834b00dd
:1031b0000748a300f9ff32000740a00004a8be00a2
:1031c00006a8be0020002000800098009200980011
:1031d00000000600889fbe008a9fbe008c9fbe0034
:1031e0000404b8000506b8008904460060854e0056
:1031f0000606b8000a054600e0854e000706b8003e
:103200008b054600040eb800890446000a854e006e
:10321000e0854d00050eb8000a0546008b854e007e
:10322000060eb8008b0546000416b8000a054600d5
:103230008b854e000516b8008b054600041eb800ad
:103240008b0546000800be000a01be004f06be0006
:0c3250004f05be004f04be000000060049
:020000040000fa
:10325c00252e00003366000000490000444c00009d
:10326c004520000020200000200000004348000002
:10327c00454300004b4900004e4700000000000091
:10328c00486500006c6c00006f210000000000001d
:020000040000fa
:10329c000000fa0015050700bd03070042050700f2
:1032ac00c862a900c922a900c942a900c902a90083
:1032bc00cc62a900cd22a9000002eb0004408800da
:1032cc000002eb00144088000002eb002440880050
:1032dc000002eb00a44188000002eb00744288005d
:1032ec000002eb00944188000002eb00d4418800fe
:1032fc000002eb00e44188000100370000000000f0
:10330c0044408000e10f520016003a008040eb0070
:10331c000040eb00e603070054428000cfa2de0021
:10332c000400be00b2f407000002be008440880016
:10333c00954088008440800095408000849fbe00aa
:10334c00e4922900841f78004081200010f50700ca
:10335c00e687570040812000ba0307000002eb000b
:10336c0044408800044080000500200086002000b6
:10337c0007002000860f5200878f5a00dfff3e00a7
:10338c00046001000800370081013700120037008b
:10339c00ac013700ba013700c80137008b01370088
:1033ac0099013700d10137000002eb00040c8800b2
:1033bc000002eb00340c88008040eb0010c0b3001e
:1033cc00bb030700309329009e0307000002eb00ab
:1033dc00a4418800d90137008040eb0010c0b30035
:1033ec00b3030700c09329009603070065408000d3
:1033fc0004322000848f52000800340055408000b5
:10340c00341f2000848f520004003c007540800063
:10341c00341f2000848f52000c0034006540800063
:10342c00341f2000848f52000b003c00554080005c
:10343c00341f2000848f520007003c007540800030
:10344c00341f2000848f520003003c001400200025
:10345c00044088004b01370014408000e30f5200f9
:10346c0018003a006540800004322000848f52001e
:10347c001400340074428000e10f520011003a0035
:10348c0064428000e10f52000e003a00754080004b
:10349c00341f2000848f52000a003c000002eb0015
:1034ac00744288000002eb006442880054428000a1
:1034bc000402e800544288001400200014408800e4
:1034cc003001370014408000e30f520017003a001f
:1034dc006540800004322000848f520013003400b9
:1034ec0074428000e10f520010003a0055408000f9
:1034fc00341f2000848f52000c003c00754080006b
:10350c00341f2000848f520008003c000002eb00a6
:10351c0074428800444280000402e800444288005f
:10352c00140020001440880016013700144080005d
:10353c00e30f520011003a0055408000341f200068
:10354c00848f52000d003c00654080000432200046
:10355c00848f52000900340075408000341f200015
:10356c00848f520005003c00340020000440880089
:10357c0014002000744288000201370014408000bf
:10358c00e30f520011003a00654080000432200025
:10359c00848f52000d00340075408000341f2000d1
:1035ac00848f520009003c005540800004322000fa
:1035bc00848f520005003400340020000440880041
:1035cc001400200074428800ee0037001440800084
:1035dc00e30f52000f003a006540800004322000d7
:1035ec00848f52000b0034007540800004322000a0
:1035fc00848f5200070034005540800004322000b4
:10360c00848f5200030034003400200004408800f2
:10361c00dc00370014408000e40f520018003a0020
:10362c006540800004322000848f52001400340066
:10363c0074428000e10f520011003a006442800095
:10364c00e10f52000e003a0055408000341f20005c
:10365c00848f52000a003c000002eb007442880088
:10366c000002eb0064428800544280000402e8002f
:10367c00544288001400200014408800c100370018
:10368c0014408000e40f520017003a00654080009f
:10369c0004322000848f52001300340074428000e6
:1036ac00e10f520010003a0075408000341f2000da
:1036bc00848f52000c003c0055408000341f2000c9
:1036cc00848f520008003c000002eb00744288001a
:1036dc00344280000402e8003442880014002000c8
:1036ec0014408800a700370014408000e40f5200fb
:1036fc0011003a0055408000341f2000848f520086
:10370c000d003c006540800004322000848f520084
:10371c000900340075408000341f2000848f520053
:10372c0005003c00440020000440880014002000e8
:10373c00744288009300370014408000e40f52005c
:10374c0011003a006540800004322000848f520042
:10375c000d0034007540800004322000848f52002c
:10376c000900340055408000341f2000848f520023
:10377c0005003c0044002000044088001400200098
:10378c00744288007f00370014408000e40f520020
:10379c000f003a006540800004322000848f5200f4
:1037ac000b0034007540800004322000848f5200de
:1037bc00070034005540800004322000848f5200f2
:1037cc000300340044002000044088006d003700e2
:1037dc0065408000341f2000848f52000b003c0099
:1037ec005540800004322000848f520007003400c2
:1037fc0075408000341f2000848f520003003c0071
:10380c0064002000044088005e00370065408000a2
:10381c00341f2000848f52000b003c005540800068
:10382c0004322000848f5200070034007540800061
:10383c0004322000848f5200030034001400200056
:10384c00044088004f00370065408000341f200082
:10385c00848f52000b003c0055408000341f200028
:10386c00848f520007003c00754080000432200019
:10387c00848f520003003400740020000440880040
:10388c00400037006540800004322000848f5200d5
:10389c00130034005540800004322000848f520005
:1038ac000f0034007540800004322000848f5200d9
:1038bc000b00340014002000644288005442800045
:1038cc00e30f520003003a0054002000044088002b
:1038dc002c003700440020000440880029003700e9
:1038ec006540800004322000848f520011003400a7
:1038fc005540800004322000848f52000d003400ab
:10390c0075408000341f2000848f520009003c0059
:10391c0044428000e30f520003003c0034002000be
:10392c000440880017003700140020000440880071
:10393c00140037006540800004322000848f520050
:10394c001000340055408000341f2000848f52003a
:10395c000c003c007540800004322000848f520023
:10396c000800340034428000e30f520003003c0096
:10397c00440020000440880002003700140020009e
:10398c000440880024002000144088006b0037009d
:10399c00a4418000e00f520003003a00910207009e
:1039ac0014002000a441880084022000040c88002c
:1039bc00e4012000340c880024002000044088001e
:1039cc0014002000144088005c003700a4418000e3
:1039dc00e00f520003003a0082020700140020009e
:1039ec00a441880084022000040c88000002eb0033
:1039fc00340c88002400200004408800640020005f
:103a0c00144088004d003700a4418000e00f5200a4
:103a1c0003003a007302070014002000a441880040
:103a2c000002eb00040c880084022000340c880097
:103a3c0024002000044088007400200014408800fa
:103a4c003e003700a4418000e00f520003003a0012
:103a5c006402070014002000a441880034022000f6
:103a6c00040c88000002eb00340c880024002000b9
:103a7c000440880034002000144088002f003700d8
:103a8c00a4418000e00f520003003a0055020700e9
:103a9c0014002000a44188000002eb00040c8800f4
:103aac0034022000340c88002400200004408800dc
:103abc004400200014408800200037000002eb0076
:103acc00a44188000002eb00040c88000002eb000b
:103adc00340c88008400200004408800540020002e
:103aec0014408800f3020700140037007f0207001f
:103afc0024032000040c880024032000340c8800cc
:103b0c0014428000e00f520005003c0084002000ad
:103b1c001440880084002000044088000600370010
:103b2c0024002000044088000002eb0014428800ae
:103b3c000002eb00a441880000000000f0fd3700fb
:103b4c00841f78003400f80004002000a4018800d1
:103b5c000200fa0085a0a9000002eb005440880086
:103b6c000002eb00644088000002eb007440880007
:103b7c0004302000040f78001e0278001402780034
:103b8c00744088001e8fe8001e0278001402780032
:103b9c00544088001e8fe8001e0278001402780042
:103bac00644088001e8fe800140020004440880008
:103bbc000080fa003400f9004f0278000040060043
:103bcc003600f800809fbe00829fbe00849fbe001e
:103bdc00869fbe003400f80000002000a001880081
:103bec000000fa008660a9008038210082020700dc
:103bfc00551680000402200004826200e00f52007f
:103c0c0006003a0094418000e00f520003003a0095
:103c1c0014002000944188001200370055168000d3
:103c2c000402200004826200e00f52000d003200fa
:103c3c0094418000e10f52000a003a000002eb00b0
:103c4c009441880004408000e00f520003003200d1
:103c5c000002eb0004408800020037002400200022
:103c6c00044088000080fa003400f9004f03be00c5
:103c7c004f02be004f01be004f00be003600f900df
:103c8c0000400600841f78003400f8000400200077
:103c9c00a40188000000fa008460a90004408000a0
:103cac00e80f520006003a00144280000402e800bb
:103cbc00144288000002eb00040888000100370061
:103ccc0005e1a9000080fa003400f9004f027800e9
:043cdc00004006009e
:020000040000fa
:103ce000000800005000000000000000740a0000fe
:103cf0001800000002000000286e75006c6c29009e
:103d00000030310032333400353637003839610045
:103d10006263640065660000b0090000a000000056
:103d200002000000010000000000000000000a0086
:103d3000000000000000000000640000000000001f
:103d400000000000e8030000000000000000100078
:103d5000270000000000000000a086000100000015
:103d60000000000040420f00000000000000800042
:103d700096980000000000000000e100f50500003a
:103d80000000000000ca9a003b0000000000000094
:103d9000e40b5400020000000000e8007648170021
:103da000000000000010a500d4e8000000000000a2
:103db000a0724e0018090000000040007a10f300c5
:103dc0005a0000000080c600a47e8d0003000000a1
:103dd00000c16f00f2862300000000008a5d7800b9
:103de0004563010000006400a7b3b600e00d0000c9
:103df00000e889000423c7008a0000005008000082
:103e0000b000000002000000000000000000000000
:103e1000f03f00000000000000002400400000000f
:103e200000000000005940000000000000004000b9
:103e30008f400000000000000088c3004000000028
:103e4000000000006af840000000000000808400cc
:103e50002e41000000000000d0126300410000006d
:103e600000008400d7974100000000000065cd00ed
:103e7000cd410000000020005fa0020042000000d1
:103e800000801d00af1544000000000040593e00b6
:103e900029460000000000000000f0007f00000044
:103ea0000000000000f07f000000000000000000a3
:103eb000f07f0000000000000000f0007f00000024
:103ec0000000000000f07f00000000000000000083
:103ed000f07f0000000000000000f0007f00000004
:103ee0000000000000f07f00000000000000000063
:103ef000f07f000000090000b00000000200000098
:103f00000000000000000000f03f00000000a000e2
:103f10009999b9003f0000000040e1007a843f0019
:103f200000000000e04d6200503f00000000e00093
:103f3000e2361a003f0000000080b500f8e43e00c1
:103f400000000000a0f7c600b03e00000000a00086
:103f5000f2d77a003e00000000e08e0079453e0076
:103f600000000000e00b2e00113e00000000e00009
:103f7000df7cdb003d0000000000a1009cc73b008f
:103f800000000000004c4800b439000000000000b0
:103f9000206ca100370000000000000000000000bd
:103fa0000000000000000000000000000000000011
:103fb0000000000000000000000000000000000001
:103fc00000000000000000000000000000000000f1
:103fd00000000000000000000000000000000000e1
:103fe000000000000000000000000000500a000077
:103ff0002400000002000000900a000000900a0067
:104000000900000000020000920a000000920a006d
:104010000e0201000000000000000000000000008f
:1040200006020200000000008c0a000002000000ee
:1040300002000000500a00008e0a0000020000008a
:1040400000000000900a00000200000000000000d4
:10405000920a00000200000000000000940a000024
:10406000020000000200000001000000000000004b
:020000040000fa
:104070000800fa00004f7800110798002207980006
:10408000330798003e029000e00f52000900320012
:1040900065168000f4ff2000848262001e437800d1
:1040a0000682fb004c22dd000502720064168800c7
:1040b0000a00370065168000f4ff20008482620049
:1040c0001e4278000483fb00040f200004026300fa
:1040d0004822dd0005027200641688001e0290006e
:1040e00004427800614262000482fb0061026200c7
:1040f0004722dd0066168000f5f72f008502630079
:104100000502720064168800100020003d010700bf
:10411000ccc2a800100020003a010700ccc2a900c0
:1041200010002000370107002e0090003501070025
:104130000080fa00000006000600fa00004f780038
:1041400011079800220798008001eb002e019000d3
:104150009e0090001e407800c5ff0700130020005d
:104160002e0190009e0090001e407800c0ff0700c6
:104170000080fa00000006000200fa00004f7800fc
:104180001e427800e2022000110020000440780066
:10419000e9ff07000080fa00000006000000fa00b6
:1041a000c8e2a900c8c2a900c9e2a900c9c2a90001
:1041b000c9a2a900c982a90080a923001101070092
:1041c00013002000420021008000eb0030c0b3004b
:1041d000a7ff070013002000420620008000eb002c
:1041e00030c0b300a2ff0700420620008000eb00b1
:1041f00020c3b300d0ff0700820220008000eb0044
:1042000080c2b300ccff0700820220008000eb00d8
:1042100080c0b300c8ff0700826620008000eb006a
:1042200010c0b300c4ff0700820220008000eb0032
:1042300060c0b300c0ff0700820220008000eb00d6
:10424000c0c0b300bcff07000080fa0000000600f9
:104250000400fa00100798000002eb00040f780039
:10426000070037001e0278009e0290000482420080
:104270001442780004407800bfff07001e0fe800da
:104280001e0278009e0290000482420014427800d0
:10429000e04f5200f3ff3a000080fa0000000600f1
:1042a0000000fa00826620008000eb0010c0b3001e
:1042b000a1ff07000080fa00000006000400fa00d9
:1042c00020479800314798000042eb00044f7800e7
:1042d00014c0b300144798001e4290000402fb0073
:1042e0004722dd00144798002e429000e14f520013
:1042f00003003a001e4278000444b000044f7800e6
:104300009e4278003e42900004c24200044f780072
:104310001e4290001e427200144798001e429000f8
:10432000820220008000eb000440780082ff07003a
:104330000080fa00000006000200fa0097ff070064
:104340000002eb00040f780030c6b3008aff0700bc
:104350000002eb00040f780003003700803e2000cd
:10436000a80007001e0fe800743e20009e0278009f
:10437000848f5200f9ff3400c9ff070060942900c0
:10438000b3ff070021c0b30010c0b300cbff07008c
:104390000002eb00040f780003003700803e20008d
:1043a000980007001e0fe800743e20009e0278006f
:1043b000848f5200f9ff340060942900a4ff0700a5
:1043c0000002eb00040f780003003700803e20005d
:1043d0008c0007001e0fe800743e20009e0278004b
:1043e000848f5200f9ff34000080fa0000000600bc
:1043f0000000fa0015368000f40f2e0004826200df
:104400001436880045368000f40f2e0004826200c6
:1044100044368800cc62a900cd22a900240c80007b
:104420000400a1000410a1000420a100240c8800b5
:10443000540c80000400a1000410a1000420a1007d
:10444000540c8800940880000440a0000450a00090
:10445000940888000002eb005408880084032000c0
:10446000740888008461a800240c80000400a10066
:104470000410a0000420a000240c88005536800001
:1044800004fe2f00048262002401b3005436880029
:104490000002eb00140c880074032000040c880058
:1044a0000002eb0054088800840320007408880090
:1044b0008a61a800540c80000400a1000410a00030
:1044c0000420a000540c88004536800004fe2f0014
:1044d000048262003401b300443688000002eb001d
:1044e000440c880074032000340c880013e1a800f9
:1044f0000080fa00000006000000fa001536800077
:10450000f40f2e00048262001436880045368000c5
:1045100004fe2f000482620044368800cc62a900a9
:10452000cd02a900240c80000400a1000410a10009
:104530000420a100240c8800540c80000400a10079
:104540000410a1000420a100540c880094088000ed
:104550000440a0000450a000940888000002eb0072
:104560005408880084032000740888008461a8002f
:10457000240c80000400a1000410a0000420a0006e
:10458000240c88005536800004fe2f00048262004f
:104590002401b300543688000002eb00140c88009c
:1045a00074032000040c88000002eb00540888000b
:1045b00084032000740888008a61a800540c8000dd
:1045c0000400a1000410a0000420a000540c8800e6
:1045d00045368000f40f2e008482620004302100f2
:1045e00005027200443688000002eb00440c88008b
:1045f00074032000340c880013e1a8000080fa0046
:10460000000006000200fa00000f78000002eb0034
:10461000340888001e0278006e22b9000402780077
:104620006408880084e0a900840880000440a10098
:104630000450a1008408880011e1a80000000000d7
:10464000250480000408200004826200e00f52006c
:10465000fbff320011e1a9000080fa000000060013
:104660000200fa00000f78000002eb000408880046
:104670009e0278009403200004aab9000402780086
:104680001408880005e1a800240880000440a00068
:104690000450a000240888008460a90000000000e5
:1046a0002404800068026200e00f5200fcff320028
:1046b0008460a90005e1a9000080fa00000006005e
:1046c0000000fa000002eb000408880084ea2d00d4
:1046d00014088800240880000440a0000450a000b2
:1046e000240888008460a9009460a80005e1a8005f
:1046f0000080fa00000006000000fa002c23a90048
:104700002c03a9002c83a900041980000480a100b7
:104710000490a10004198800041980000450a0002e
:104720000460a0000470a000041988002043a800c1
:104730001419800004d0a10004e0a10004f0a1003d
:10474000141988002343a800141980000420a10034
:104750000430a0000440a1000450a10014198800f6
:104760002203a90025e3a90025198000f40f2e00db
:10477000848262000410200005027200241988005f
:10478000a4c0b3000443780045322000864a780074
:104790000002eb00441988003401200084198800cd
:1047a00021e3a80095a0a80085a0a9000080fa0038
:1047b000000006000000fa00c8a2a8009660a80049
:0c47c0006360a8000080fa000000060002
:020000040000fa
:020000040001f9
:0457f800ad7b000085
:020000040000fa
:020000040001f9
:0457fc003f3f00002b
:00000001FF
