:020000040000fa
:080000000002040000000000f2
:020000040000fa
:100008009a0200009a0200009a0200009a02000078
:100018009a0200009a0200009a0200009a02000068
:100028009a0200009a0200009a0200003e060000b0
:100038009a0200009a0200009a0200009a02000048
:100048009a0200009a0200009a0200009a02000038
:100058009a0200009c0500009a0200009a02000023
:100068009a0200009a0200009a020000dc050000d3
:100078009a0200009a0200009a0200009a02000008
:100088009a0200009a0200009a0200009a020000f8
:100098009a0200009a0200009a0200009a020000e8
:1000a8009a0200009a0200009a0200009a020000d8
:1000b8009a0200009a0200009a0200009a020000c8
:1000c8009a0200009a0200009a0200009a020000b8
:1000d8009a0200009a0200009a0200009a020000a8
:1000e8009a0200009a0200009a0200009a02000098
:1000f8009a0200009a0200009a0200009a02000088
:100108009a0200009a0200009a0200009a02000077
:100118009a0200009a0200009a0200009a02000067
:100128009a0200009a0200009a0200009a02000057
:100138009a0200009a0200009a0200009a02000047
:100148009a0200009a0200009a0200009a02000037
:100158009a0200009a0200009a0200009a02000027
:100168009a0200009a0200009a0200009a02000017
:100178009a0200009a0200009a0200009a02000007
:100188009a0200009a0200009a0200009a020000f7
:100198009a0200009a0200009a0200009a020000e7
:1001a8009a0200009a0200009a0200009a020000d7
:1001b8009a0200009a0200009a0200009a020000c7
:1001c8009a0200009a0200009a0200009a020000b7
:1001d8009a0200009a0200009a0200009a020000a7
:1001e8009a0200009a0200009a0200009a02000097
:0801f8009a0200009a020000c7
:020000040000fa
:100208009a0200009a0200009a0200009a02000076
:100218009a0200009a0200009a0200009a02000066
:100228009a0200009a0200009a0200003e060000ae
:100238009a0200009a0200009a0200009a02000046
:100248009a0200009a0200009a0200009a02000036
:100258009a0200009c0500009a0200009a02000021
:100268009a0200009a0200009a020000dc050000d1
:100278009a0200009a0200009a0200009a02000006
:100288009a0200009a0200009a0200009a020000f6
:100298009a0200009a0200009a0200009a020000e6
:1002a8009a0200009a0200009a0200009a020000d6
:1002b8009a0200009a0200009a0200009a020000c6
:1002c8009a0200009a0200009a0200009a020000b6
:1002d8009a0200009a0200009a0200009a020000a6
:1002e8009a0200009a0200009a0200009a02000096
:1002f8009a0200009a0200009a0200009a02000086
:100308009a0200009a0200009a0200009a02000075
:100318009a0200009a0200009a0200009a02000065
:100328009a0200009a0200009a0200009a02000055
:100338009a0200009a0200009a0200009a02000045
:100348009a0200009a0200009a0200009a02000035
:100358009a0200009a0200009a0200009a02000025
:100368009a0200009a0200009a0200009a02000015
:100378009a0200009a0200009a0200009a02000005
:100388009a0200009a0200009a0200009a020000f5
:100398009a0200009a0200009a0200009a020000e5
:1003a8009a0200009a0200009a0200009a020000d5
:1003b8009a0200009a0200009a0200009a020000c5
:1003c8009a0200009a0200009a0200009a020000b5
:1003d8009a0200009a0200009a0200009a020000a5
:1003e8009a0200009a0200009a0200009a02000095
:0803f8009a0200009a020000c5
:020000040000fa
:10040000af8420000e7f22000e0188000000000053
:10041000000020000000e000020032000001200087
:10042000200288000c0007006086200001002000e8
:1004300011000700000020000000e0000200320070
:1004400000000200000000009e0202000000000008
:100450000040da000000fe004440a9000000200037
:100460000000e0000300320000002000a00188002e
:100470004440a80000000600910188008000780038
:100480000000eb0015003700e280400032a0b4000d
:100490009101ba00e280400032a0b4009102ba009b
:1004a000e280400032a0b4000002eb00472bde00e7
:1004b000f507b200602ce10004003a000059eb009f
:1004c0008301e900fdff3e00040037006128e100e0
:1004d000010032000082eb00040007001101ba00a5
:1004e0000200e000e8ff3a00000006003159ba00bf
:1004f0008301e9000c0032002159ba008301e900b0
:10050000080032000400e00003003a00e2804000ee
:1005100032a0b400f5ff370011d9ba008301e90019
:10052000faff3a008100e800e180400032a0b40008
:0c053000000006000040da000000fe00a1
:020000040000fa
:10053c000000fa00a4020700d2020700da0207004a
:10054c00c862a900c802a900c942a900c962a900d1
:10055c00cc62a900cc02a9000002eb000440880088
:10056c000002eb00144088000002eb0024408800dd
:10057c000002eb00a44188000002eb00244288003a
:10058c000002eb00944188000100370000000000dd
:10059c0044408000e10f520017003a000002eb00cb
:1005ac00444088005540800004322000848f520063
:1005bc0002003400cda2a90001003700cda2a80092
:1005cc006540800004322000848f52000200340009
:1005dc00cdc2a90001003700cdc2a8007540800033
:1005ec0004322000848f520002003400cde2a900b6
:1005fc0001003700cde2a800044080000500200077
:10060c008600200007002000860f5200878f5a00ba
:10061c00deff3e000460010008003700d700370001
:10062c000d00370002013700100137001e013700a2
:10063c00e1003700ef003700270137000002eb0024
:10064c00040c88000002eb00340c88000002eb0064
:10065c00a441880034013700803821001d020700b6
:10066c006540800004322000848f52000b0034005f
:10067c005540800034062000848f520007003c0057
:10068c007540800034062000848f520003003c002b
:10069c001400200004408800b5003700654080003d
:1006ac0034062000848f520008003c005540800026
:1006bc0034062000848f520004003c0075408000fa
:1006cc0034062000848f52000c003400554080000a
:1006dc0004322000848f52000b00340065408000ef
:1006ec0034062000848f520007003c0075408000c7
:1006fc0004322000848f5200030034001440800028
:10070c00044088009a00370014408000e30f520028
:10071c0015003a005540800034062000848f5200aa
:10072c000e003c007540800034062000848f52007f
:10073c000a003c006540800004322000848f520087
:10074c00060034001400200004408800f4418000ae
:10075c000402e800f44188008500370034002000d2
:10076c00044088008200370014408000e40f5200df
:10077c0015003a005540800034062000848f52004a
:10078c000e003c007540800034062000848f52001f
:10079c000a003c006540800004322000848f520027
:1007ac00060034001400200004408800e44180005e
:1007bc000402e800e44188006d003700440020008a
:1007cc00044088006a003700654080000432200035
:1007dc00848f5200110034005540800004322000f8
:1007ec00848f52000d0034007540800034062000c8
:1007fc00848f520009003c00f4418000e00f52004d
:10080c0003003c00340020000440880058003700ee
:10081c0034002000044088005500370065408000fb
:10082c0004322000848f52001100340055408000a7
:10083c0034062000848f52000d003c00754080006f
:10084c0004322000848f520009003400e4418000ff
:10085c00e30f520003003c004400200004408800d9
:10086c00430037004400200004408800400037005b
:10087c006540800034062000848f52000b003c0041
:10088c005540800004322000848f52000700340051
:10089c007540800034062000848f520003003c0019
:1008ac00640020000440880031003700654080005f
:1008bc0034062000848f52000b003c005540800011
:1008cc0034062000848f520007003c0075408000e5
:1008dc0004322000848f5200030034007400200086
:1008ec00044088002200370065408000043220005c
:1008fc00848f52001e0034005540800004322000ca
:10090c00848f52001a00340075408000043220009d
:10091c00848f52001600340014002000144288000a
:10092c0004428000e30f520003003a005400200000
:10093c00044088000b00370004428000e40f520092
:10094c000300320004428000e50f520003003a001d
:10095c0034002000044088000200370044002000ce
:10096c0004408800044280000402e800044288002d
:10097c0024002000144088006b003700a441800044
:10098c00e00f520003003a00cd00070014002000d5
:10099c00a4418800e4012000040c880034022000eb
:1009ac00340c88002400200004408800140020002f
:1009bc00144088005c003700a4418000e00f520016
:1009cc0003003a00be00070014002000a441880078
:1009dc000002eb00040c880084022000340c880018
:1009ec00240020000440880064002000144088008b
:1009fc004d003700a4418000e00f520003003a0084
:100a0c00af00070014002000a4418800340220002d
:100a1c00040c88000002eb00340c88002400200039
:100a2c000440880074002000144088003e00370009
:100a3c00a4418000e00f520003003a00a000070020
:100a4c0014002000a44188000002eb00040c880074
:100a5c0084022000340c880024002000044088000c
:100a6c0034002000144088002f003700a44180007f
:100a7c00e00f520003003a00910007001400200020
:100a8c00a441880034022000040c88000002eb0012
:100a9c00340c88002400200004408800440020000e
:100aac0014408800200037000002eb00a4418800ad
:100abc000002eb00040c88000002eb00340c8800f0
:100acc00840020000440880054002000144088005a
:100adc002f01070014003700bc000700240320007e
:100aec00040c880024032000340c8800d4418000be
:100afc00e00f520005003c008400200014408800e8
:100b0c0084002000044088000600370024002000e8
:100b1c00044088000002eb00d44188000002eb0086
:100b2c00a44188000000000099fe3700841f780063
:100b3c003400f80004002000a40188000200fa0030
:100b4c0085a0a9000002eb00544088000002eb00d5
:100b5c00644088000002eb007440880004302000e0
:100b6c00040f78001e02780014027800744088008c
:100b7c001e8fe8001e027800140278005440880092
:100b8c001e8fe8001e027800140278006440880072
:100b9c001e8fe80014002000444088000080fa00fa
:100bac003400f9004f027800004006003600f800cf
:100bbc00809fbe00829fbe00849fbe00869fbe00a9
:100bcc003400f80000002000a00188000000fa00aa
:100bdc008660a90080382100be00070055168000f1
:100bec000402200004826200e00f520006003a006a
:100bfc0094418000e00f520003003a0014002000e2
:100c0c009441880012003700551680000402200021
:100c1c0004826200e00f52000d003200944180000b
:100c2c00e10f52000a003a000002eb0094418800e8
:100c3c0004408000e00f5200030032000002eb0081
:100c4c000440880002003700240020000440880083
:100c5c000080fa003400f9004f03be004f02be00c2
:100c6c004f01be004f00be003600f90000400600e8
:100c7c00841f78003400f80004002000a4018800d0
:100c8c000000fa008460a90004408000e80f5200c4
:100c9c0006003a00d44180000402e800d4418800e8
:100cac000002eb00040888000100370005e1a900f0
:100cbc000080fa003400f9004f0278000040060072
:100ccc000000fa0015368000f40f2e00048262003a
:100cdc00143688000536800004fe2f000482620062
:100cec0004368800cc62a900cc02a900240c800038
:100cfc000400a1000410a1000420a100240c880011
:100d0c00540c80000400a1000410a1000420a100d8
:100d1c00540c8800940880000440a0000450a000eb
:100d2c00940888000002eb0054088800840320001b
:100d3c00740888008461a800240c80000400a100c1
:100d4c000410a0000420a000240c8800553680005c
:100d5c0004fe2f00048262002401b3005436880084
:100d6c000002eb00140c880074032000040c8800b3
:100d7c000002eb00540888008403200074088800eb
:100d8c008a61a800540c80000400a1000410a0008b
:100d9c000420a000540c880055368000f40f2e005f
:100dac0084826200043021000502720054368800ef
:100dbc000002eb00440c880074032000340c880003
:100dcc0013e1a8000080fa00000006000000fa0001
:100ddc0015368000f40f2e00048262001436880051
:100dec0055368000f40f2e000482620054368800c1
:100dfc00cc62a900cd62a900240c80000400a100e3
:100e0c000410a1000420a100240c8800540c8000c4
:100e1c000400a1000410a1000420a100540c8800bf
:100e2c00940880000440a0000450a000940888009e
:100e3c000002eb005408880084032000740888002a
:100e4c008461a800240c80000400a1000410a00000
:100e5c000420a000240c88005536800004fe2f00ce
:100e6c00048262002401b300543688000002eb00b7
:100e7c00140c880074032000040c88000002eb00a2
:100e8c005408880084032000740888008a61a80034
:100e9c00540c80000400a1000410a0000420a00049
:100eac00540c88000536800004fe2f00048262007a
:100ebc003401b300043688000002eb00440c8800b7
:100ecc0074032000340c880013e1a8000080fa00a1
:100edc00000006000200fa00000f78000002eb0090
:100eec00340888001e0278006e22b90004027800d3
:100efc006408880084e0a900840880000440a100f4
:100f0c000450a1008408880011e1a8000000000032
:100f1c00250480000408200004826200e00f5200c7
:100f2c00fbff320011e1a9000080fa00000006006e
:100f3c000200fa00000f78000002eb0004088800a1
:100f4c009e0278009403200004aab90004027800e1
:100f5c001408880005e1a800240880000440a000c3
:100f6c000450a000240888008460a9000000000040
:100f7c002404800068026200e00f5200fcff320083
:100f8c008460a90005e1a9000080fa0000000600b9
:100f9c000000fa000002eb000408880084ea2d002f
:100fac0014088800240880000440a0000450a0000d
:100fbc00240888008460a9009460a80005e1a800ba
:100fcc000080fa00000006000000fa002c23a900a3
:100fdc002c03a9002c83a900041980000480a10013
:100fec000490a10004198800041980000450a0008a
:100ffc000460a0000470a000041988002043a8001d
:10100c001419800004d0a10004e0a10004f0a10098
:10101c00141988002343a800141980000420a1008f
:10102c000430a0000440a1000450a1001419880051
:10103c002203a90025e3a90025198000f40f2e0036
:10104c0084826200041020000502720024198800ba
:10105c00a4c0b3000443780045322000864a7800cf
:10106c000002eb0044198800340120008419880028
:10107c0021e3a80095a0a80085a0a9000080fa0093
:10108c00000006000000fa00c9a2a900c9c2a9000c
:10109c00c9e2a900cfa2a800cfc2a800cfe2a80045
:1010ac000080fa00000006000000fa00c8a2a800a8
:1010bc009660a8006360a8000080fa00000006009b
:020000040000fa
:1010cc00000800004a0000000000000000000000c2
:020000040000fa
:020000040001f9
:0457f800ad7b000085
:020000040000fa
:020000040001f9
:0457fc003f3f00002b
:00000001FF
