:020000040000fa
:080000000002040000000000f2
:020000040000fa
:100008009a0200009a0200009a0200009a02000078
:100018009a0200009a0200009a0200009a02000068
:100028009a0200009a0200009a0200001a070000d3
:100038009a0200009a0200009a0200009a02000048
:100048009a0200009a0200009a0200009a02000038
:100058009a0200009a0200009a0200009a02000028
:100068009a0200009a0200009a020000e4060000ca
:100078009a0200009a0200009a0200009a02000008
:100088009a0200009a0200009a0200009a020000f8
:100098009a0200009a0200009a0200009a020000e8
:1000a8009a0200009a0200009a0200009a020000d8
:1000b8009a0200009a0200009a0200009a020000c8
:1000c8009a0200009a0200009a0200009a020000b8
:1000d8009a0200009a0200009a0200009a020000a8
:1000e8009a0200009a0200009a0200009a02000098
:1000f8009a0200009a0200009a0200009a02000088
:100108009a0200009a0200009a0200009a02000077
:100118009a0200009a0200009a0200009a02000067
:100128009a0200009a0200009a0200009a02000057
:100138009a0200009a0200009a0200009a02000047
:100148009a0200009a0200009a0200009a02000037
:100158009a0200009a0200009a0200009a02000027
:100168009a0200009a0200009a0200009a02000017
:100178009a0200009a0200009a0200009a02000007
:100188009a0200009a0200009a0200009a020000f7
:100198009a0200009a0200009a0200009a020000e7
:1001a8009a0200009a0200009a0200009a020000d7
:1001b8009a0200009a0200009a0200009a020000c7
:1001c8009a0200009a0200009a0200009a020000b7
:1001d8009a0200009a0200009a0200009a020000a7
:1001e8009a0200009a0200009a0200009a02000097
:0801f8009a0200009a020000c7
:020000040000fa
:100208009a0200009a0200009a0200009a02000076
:100218009a0200009a0200009a0200009a02000066
:100228009a0200009a0200009a0200001a070000d1
:100238009a0200009a0200009a0200009a02000046
:100248009a0200009a0200009a0200009a02000036
:100258009a0200009a0200009a0200009a02000026
:100268009a0200009a0200009a020000e4060000c8
:100278009a0200009a0200009a0200009a02000006
:100288009a0200009a0200009a0200009a020000f6
:100298009a0200009a0200009a0200009a020000e6
:1002a8009a0200009a0200009a0200009a020000d6
:1002b8009a0200009a0200009a0200009a020000c6
:1002c8009a0200009a0200009a0200009a020000b6
:1002d8009a0200009a0200009a0200009a020000a6
:1002e8009a0200009a0200009a0200009a02000096
:1002f8009a0200009a0200009a0200009a02000086
:100308009a0200009a0200009a0200009a02000075
:100318009a0200009a0200009a0200009a02000065
:100328009a0200009a0200009a0200009a02000055
:100338009a0200009a0200009a0200009a02000045
:100348009a0200009a0200009a0200009a02000035
:100358009a0200009a0200009a0200009a02000025
:100368009a0200009a0200009a0200009a02000015
:100378009a0200009a0200009a0200009a02000005
:100388009a0200009a0200009a0200009a020000f5
:100398009a0200009a0200009a0200009a020000e5
:1003a8009a0200009a0200009a0200009a020000d5
:1003b8009a0200009a0200009a0200009a020000c5
:1003c8009a0200009a0200009a0200009a020000b5
:1003d8009a0200009a0200009a0200009a020000a5
:1003e8009a0200009a0200009a0200009a02000095
:0803f8009a0200009a020000c5
:020000040000fa
:10040000ef8220000e7f22000e0188000000000015
:10041000000020000000e000020032000001200087
:10042000200288000c00070000ac20000100200022
:1004300011000700000020000000e0000200320070
:100440000000020000000000e602020000000000c0
:100450000040da000000fe004440a900a003200094
:100460000000e0000300320000002000a00188002e
:100470004440a80000000600910188008000780038
:100480000000eb0015003700e280400032a0b4000d
:100490009101ba00e280400032a0b4009102ba009b
:1004a000e280400032a0b4000002eb00472bde00e7
:1004b000f507b200602ce10004003a000059eb009f
:1004c0008301e900fdff3e00040037006128e100e0
:1004d000010032000082eb00040007001101ba00a5
:1004e0000200e000e8ff3a00000006003159ba00bf
:1004f0008301e9000c0032002159ba008301e900b0
:10050000080032000400e00003003a00e2804000ee
:1005100032a0b400f5ff370011d9ba008301e90019
:10052000faff3a008100e800e180400032a0b40008
:10053000000006000040da000000fe000002780023
:1005400002003700315a78000201e900e00f510043
:08055000fcff3a000000060068
:020000040000fa
:100558003132000033340000002000002020000069
:1005680020000000454e000054450000523a0000ab
:10057800004700004f4f00004400000042410000c7
:100588004400000053450000542000004d4f000077
:100598004445000000560000414c0000494400005a
:1005a800004900004e560000414c0000494400003c
:1005b80000000000486500006c6c00006f2100001e
:0405c800000000002f
:020000040000fa
:1005cc000000fa007e020700120307000002eb0095
:1005dc00044088000002eb00144088000002eb008d
:1005ec00244088000002eb00344188000002eb003c
:1005fc004441880014002000544188000002eb00a4
:10060c0064418800b480200052002000c12a2800d8
:10061c0004007800c6ff0700b4802000640242008a
:10062c0052002000112b280004007800c0ff0700a6
:10063c00b48020006802420052002000112b2800d8
:10064c0004007800baff0700b48020006c0242005e
:10065c0052002000112b280004007800b4ff070082
:10066c000002eb000441880001003700000000008c
:10067c000441800005002000b60020000700200087
:10068c00860f5200878f5a00f8ff3e00046001006d
:10069c000b0037009100370052013700a9003700da
:1006ac0027013700690137002f0037005900370048
:1006bc006900370088003700bc0037007d01370027
:1006cc0080020700806620006d0307000002eb002b
:1006dc00144088000002eb00044088000002eb008c
:1006ec00344188000002eb00244088000002eb003b
:1006fc00444188000440800084427800144080000b
:10070c0004427800854078000440780074020700a9
:10071c00800220005a030700602b280055020700b6
:10072c0014002000144088000002eb0004408800f4
:10073c000440800084427800144080000442780019
:10074c008540780004407800650207008002200094
:10075c004b03070064002000044188000002eb00fa
:10076c002441880094013700640020000441880073
:10077c0024408000e40f520008003a0064418000dd
:10078c00e00f520005003a0064002000244188006c
:10079c00a4002000044188001d0037002440800084
:1007ac00e20f520010003a0085802000954278003c
:1007bc00a4c2b30084cf52000b003a008580200005
:1007cc0095427800a4c2b30084cf520006003a00d0
:1007dc0044002000044188003a0207008066200093
:1007ec00270307000a00370024408000e40f520062
:1007fc0007003a0064418000e10f520004003a0007
:10080c006400200024418800b400200004418800ca
:10081c006901370000322000190307008400200012
:10082c001441880024418000e90f520003003a0073
:10083c00640020000441880006003700740020008a
:10084c002441880014418000044188009400200059
:10085c0014418800580137008702070000427800d5
:10086c000443780065802000864a7800648020006c
:10087c0014427800e14f42001200320064802000e4
:10088c001442780004407800c40107002640800020
:10089c00658020009542780074802000040243009b
:1008ac00054a7800244080000402e80024408800b7
:1008bc00840020002441880094002000044188001a
:1008cc00040037008400200024418800940020009c
:1008dc00044188003801370037013700a40020009c
:1008ec002441880014002000044188000002eb0021
:1008fc00144188000002eb00144088000002eb0059
:10090c000440880004408000844278001440800039
:10091c00044278008540780004407800f00107001c
:10092c00d02b2800d301070034418000e00f520087
:10093c0003003a0001030700140020003441880032
:10094c001d013700a4002000244188003400200041
:10095c00044188000002eb00144188000002eb0007
:10096c00144088000002eb00044088000440800022
:10097c00844278001440800004427800854078005e
:10098c0004407800d6010700202c2800b90107008c
:10099c0034418000e00f520003003a00e7020700e8
:1009ac001400200034418800030137000002eb00e2
:1009bc00e44088000002eb00f440880014002000a2
:1009cc00144188000002eb00e44088004b00370023
:1009dc00e54080007480200004824200944278003c
:1009ec0034c2b30084cf520003003a00340020001c
:1009fc00144188003e003700e4408000e00f5200b4
:100a0c0003003200e4408000e10f52000b003a007a
:100a1c00e5408000748020000482420094427800fb
:100a2c00a4c2b30084cf520004003a00f44080000a
:100a3c000402e800f44088002d003700e5408000f7
:100a4c00748020000482420094427800e6408000ca
:100a5c00b4802000040243001442780084cf52007a
:100a6c0023003200e54080007480200004824200a4
:100a7c0094427800e440800064034200b48020007b
:100a8c00040243001442780084cf52001800320054
:100a9c00e54080007480200004824200944278007b
:100aac00e440800068034200b4802000040243004c
:100abc001442780084cf52000d003200e5408000d3
:100acc00748020000482420094427800e44080004c
:100adc006c034200b48020000402430014427800ee
:100aec0084cf5200020032003400200014418800f0
:100afc00e44080000402e800e4408800e540800007
:100b0c0024408000848f5200b1ff3500f4408000f7
:100b1c00e20f520002003a00440020001441880009
:100b2c001441800004418800a40020002441880066
:100b3c006401070080662000510207009e00370008
:100b4c000002eb00144088000002eb000440880017
:100b5c000002eb00344188000002eb0024408800c6
:100b6c000002eb004441880004408000844278007d
:100b7c0014408000044278008540780004407800de
:100b8c0057010700800220003d020700602c28005e
:100b9c003801070014002000144088000002eb000c
:100bac000440880004408000844278001440800097
:100bbc000442780085407800044078004801070022
:100bcc00800220002e0207006400200004418800ef
:100bdc004400200024418800140020006441880057
:100bec0075003700b4002000244188002400200048
:100bfc00044188000002eb00144188000002eb0065
:100c0c00144088000002eb0004408800044080007f
:100c1c0084427800144080000442780085407800bb
:100c2c00044078002e010700f02c28001101070069
:100c3c0034418000e00f520003003a003f020700ed
:100c4c0014002000344188005b003700b400200001
:100c5c002441880054002000044188000002eb006d
:100c6c00144188000002eb00144088000002eb00e5
:100c7c0004408800044080008442780014408000c6
:100c8c000442780085407800044078001401070085
:100c9c00502d2800f700070034418000e00f52006f
:100cac0003003a002502070014002000344188009c
:100cbc00410037000002eb00e440880024002000d3
:100ccc00144188000002eb00e44088001300370058
:100cdc00e540800074802000048242009442780039
:100cec0034c2b30084cf520007003200e5408000cc
:100cfc00748020000482420094427800a4c2b300a5
:100d0c0084cf520002003a005400200014418800a5
:100d1c00e44080000402e800e4408800e4408000e5
:100d2c00e30f5200eaff340014418000e50f52003b
:100d3c00170032000002eb00e44088000e00370080
:100d4c0056418000e4408000e74080007580200020
:100d5c0085824300954278004233dd000403430052
:100d6c00b480200004024300054a7800e44080006f
:100d7c000402e800e4408800e4408000e30f5200e5
:100d8c00efff3400544180000402e8005441880015
:100d9c001441800004418800b400200024418800e4
:100dac00c800070080662000b50107000002eb00b8
:100dbc0064418800000000002dfe3700841f78007d
:100dcc003400f80004002000a40188000000fa00a0
:100ddc008660a90004418000e60f520005003a002d
:100dec006400200024418800740020000441880025
:100dfc000900370004418000e90f520006003a0058
:100e0c0074002000144188001441800004418800c3
:100e1c0094002000244188000080fa003400f9007e
:100e2c004f0278000040060000a0fe003600f800db
:100e3c00849fbe00869fbe003400f8000400200092
:100e4c00a40188000000fa008460a90044418000dd
:100e5c00e20f520004003a00144180000441880063
:100e6c0005e1a90004003700444180000402e800b9
:100e7c0044418800b10107000080fa003400f900f9
:100e8c004f03be004f02be003600f9000080fe008a
:100e9c00004006000800fa00004f78001107980087
:100eac0022079800330798003e029000e00f520092
:100ebc000900320065168000f4ff20008482620075
:100ecc001e4378000682fb004c22dd0005027200f6
:100edc00641688000a00370065168000f4ff2000b5
:100eec00848262001e4278000483fb00040f200001
:100efc00040263004822dd000502720064168800bb
:100f0c001e02900004427800614262000482fb00e1
:100f1c00610262004722dd0066168000f5f72f00a3
:100f2c008502630005027200641688001000200020
:100f3c0053010700ccc2a80010002000500107008c
:100f4c00ccc2a900100020004d0107002e0090001b
:100f5c004b0107000080fa00000006000600fa00b2
:100f6c00004f780011079800220798008001eb00d1
:100f7c002e0190009e0090001e407800c5ff0700d7
:100f8c00130020002e0190009e0090001e4078005f
:100f9c00c0ff07000080fa00000006000200fa0003
:100fac00004f78001e427800e20220001100200061
:100fbc0004407800e9ff07000080fa0000000600fa
:100fcc000000fa00c8e2a900c8c2a900c9e2a90041
:100fdc00c9c2a900c9a2a900c982a90080a923007d
:100fec002701070013002000420021008000eb00c5
:100ffc0030c0b300a7ff07001300200042062000fa
:10100c008000eb0030c0b300a2ff070042062000b6
:10101c008000eb0020c3b300d0ff07008202200049
:10102c008000eb0080c2b300ccff070082022000de
:10103c008000eb0080c0b300c8ff07008266200070
:10104c008000eb0010c0b300c4ff07008202200038
:10105c008000eb0060c0b300c0ff070082022000dc
:10106c008000eb00c0c0b300bcff07000080fa009a
:10107c00000006000400fa00100798000002eb00c4
:10108c00040f7800070037001e0278009e029000c3
:10109c00048242001442780004407800bfff07002d
:1010ac001e0fe8001e0278009e029000048242008f
:1010bc0014427800e04f5200f3ff3a000080fa002f
:1010cc00000006000000fa00826620008000eb00a1
:1010dc0010c0b300a1ff07000080fa00000006005a
:1010ec000400fa0020479800314798000042eb00ba
:1010fc00044f780014c0b300144798001e429000af
:10110c000402fb004722dd00144798002e42900099
:10111c00e14f520003003a001e4278000444b00034
:10112c00044f78009e4278003e42900004c2420078
:10113c00044f78001e4290001e4272001447980023
:10114c001e429000820220008000eb0004407800d8
:10115c0082ff07000080fa00000006000200fa007f
:10116c0097ff07000002eb00040f780030c6b300b5
:10117c008aff07000002eb00040f78000300370021
:10118c00803e2000be0007001e0fe800743e2000c9
:10119c009e027800848f5200f9ff3400c9ff0700cb
:1011ac00e02d2800b3ff070021c0b30010c0b3002e
:1011bc00cbff07000002eb00040f780003003700a0
:1011cc00803e2000ae0007001e0fe800743e200099
:1011dc009e027800848f5200f9ff3400e02d280025
:1011ec00a4ff07000002eb00040f78000300370097
:1011fc00803e2000a20007001e0fe800743e200075
:10120c009e027800848f5200f9ff34000080fa00af
:10121c00000006000000fa00c002a900c022a900cc
:10122c00c842a900c922a900c902a800c942a80045
:10123c00c962a800c602a800c622a800ce42a80017
:10124c00cf22a8002c03a8002c23a8002c83a800d4
:10125c009660a8008660a9006ac0a80062c0a800b9
:10126c0069e0a80061e0a8006a00a8006200a8007c
:10127c000080fa00000006000200fa0000c2eb0039
:10128c00044f78009660a900c402a900c422a800eb
:10129c00cc42a800cd22a800200320007800070033
:1012ac00551680000410200004826200e00f5200ea
:1012bc0003003a0014c3b300044f78000f0037004a
:1012cc00551680000440200004826200e00f52009a
:1012dc0003003a0024c3b300044f78000700370022
:1012ec00551680000480200004826200e00f52003a
:1012fc0002003a0034c3b300044f7800c402a800c3
:10130c00c422a900cc42a800cd22a80020032000b2
:10131c005b00070055168000041020000482620058
:10132c00e00f520003003a0044c3b300044f7800ae
:10133c000f00370055168000044020000482620024
:10134c00e00f520003003a0054c3b300044f78007e
:10135c0007003700551680000480200004826200cc
:10136c00e00f520002003a0064c3b300044f78004f
:10137c00c402a800c422a800cc42a900cd22a80017
:10138c00200320003e0007005516800004102000aa
:10139c0004826200e00f520003003a0074c3b300f1
:1013ac00044f78000f0037005516800004402000d1
:1013bc0004826200e00f520003003a0084c3b300c1
:1013cc00044f780007003700551680000480200079
:1013dc0004826200e00f520002003a0094c3b30092
:1013ec00044f7800c402a800c422a800cc42a80074
:1013fc00cd22a900200320002100070055168000f3
:10140c000410200004826200e00f520003003a0036
:10141c00a4c2b300044f78000f00370055168000ab
:10142c000440200004826200e00f520003003a00e6
:10143c0004c3b300044f7800070037005516800032
:10144c000480200004826200e00f520002003a0087
:10145c0034c2b300044f7800c402a900c422a9000e
:10146c00cc42a900cd22a9009660a8008660a900f4
:10147c001e427800044078000080fa00000006004c
:10148c000200fa00000f78000002eb00340888001c
:10149c001e0278006e22b9000402780064088800ed
:1014ac0084e0a900840880000440a1000450a1003d
:1014bc008408880011e1a8000000000025048000c9
:1014cc000408200004826200e00f5200fbff32008f
:1014dc0011e1a9000080fa00000006000200fa00e9
:1014ec00000f78000002eb00040888009e027800d0
:1014fc009403200004aab9000402780014088800a0
:10150c0005e1a800240880000440a0000450a000bd
:10151c00240888008460a9000000000024048000d6
:10152c0068026200e00f5200fcff32008460a900e8
:10153c0005e1a9000080fa00000006000000fa0096
:10154c000002eb000408880084ea2d0014088800cf
:10155c00240880000440a0000450a0002408880047
:10156c008460a9009460a80005e1a8000080fa003e
:04157c000000060065
:020000040000fa
:10158000000800002e000000000000000000000025
:020000040000fa
:020000040001f9
:0457f800ad7b000085
:020000040000fa
:020000040001f9
:0457fc003f3f00002b
:00000001FF
