:020000040000fa
:080000000002040000000000f2
:020000040000fa
:100008009a0200009a0200009a0200009a02000078
:100018009a0200009a0200009a0200009a02000068
:100028009a0200009a0200009a0200009a02000058
:100038009a0200009a0200009a0200009a02000048
:100048009a0200009a0200009a0200009a02000038
:100058009a0200009a0200009a0200009a02000028
:100068009a0200009a0200009a020000620600004c
:100078009a0200009a0200009a0200009a02000008
:100088009a0200009a0200009a0200009a020000f8
:100098009a0200009a0200009a0200009a020000e8
:1000a8009a0200009a0200009a0200009a020000d8
:1000b8009a0200009a0200009a0200009a020000c8
:1000c8009a0200009a0200009a0200009a020000b8
:1000d8009a0200009a0200009a0200009a020000a8
:1000e8009a0200009a0200009a0200009a02000098
:1000f8009a0200009a0200009a0200009a02000088
:100108009a0200009a0200009a0200009a02000077
:100118009a0200009a0200009a0200009a02000067
:100128009a0200009a0200009a0200009a02000057
:100138009a0200009a0200009a0200009a02000047
:100148009a0200009a0200009a0200009a02000037
:100158009a0200009a0200009a0200009a02000027
:100168009a0200009a0200009a0200009a02000017
:100178009a0200009a0200009a0200009a02000007
:100188009a0200009a0200009a0200009a020000f7
:100198009a0200009a0200009a0200009a020000e7
:1001a8009a0200009a0200009a0200009a020000d7
:1001b8009a0200009a0200009a0200009a020000c7
:1001c8009a0200009a0200009a0200009a020000b7
:1001d8009a0200009a0200009a0200009a020000a7
:1001e8009a0200009a0200009a0200009a02000097
:0801f8009a0200009a020000c7
:020000040000fa
:100208009a0200009a0200009a0200009a02000076
:100218009a0200009a0200009a0200009a02000066
:100228009a0200009a0200009a0200009a02000056
:100238009a0200009a0200009a0200009a02000046
:100248009a0200009a0200009a0200009a02000036
:100258009a0200009a0200009a0200009a02000026
:100268009a0200009a0200009a020000620600004a
:100278009a0200009a0200009a0200009a02000006
:100288009a0200009a0200009a0200009a020000f6
:100298009a0200009a0200009a0200009a020000e6
:1002a8009a0200009a0200009a0200009a020000d6
:1002b8009a0200009a0200009a0200009a020000c6
:1002c8009a0200009a0200009a0200009a020000b6
:1002d8009a0200009a0200009a0200009a020000a6
:1002e8009a0200009a0200009a0200009a02000096
:1002f8009a0200009a0200009a0200009a02000086
:100308009a0200009a0200009a0200009a02000075
:100318009a0200009a0200009a0200009a02000065
:100328009a0200009a0200009a0200009a02000055
:100338009a0200009a0200009a0200009a02000045
:100348009a0200009a0200009a0200009a02000035
:100358009a0200009a0200009a0200009a02000025
:100368009a0200009a0200009a0200009a02000015
:100378009a0200009a0200009a0200009a02000005
:100388009a0200009a0200009a0200009a020000f5
:100398009a0200009a0200009a0200009a020000e5
:1003a8009a0200009a0200009a0200009a020000d5
:1003b8009a0200009a0200009a0200009a020000c5
:1003c8009a0200009a0200009a0200009a020000b5
:1003d8009a0200009a0200009a0200009a020000a5
:1003e8009a0200009a0200009a0200009a02000095
:0803f8009a0200009a020000c5
:020000040000fa
:10040000ef8020000e7f22000e0188000000000017
:10041000000020000000e000020032000001200087
:10042000200288000c0007008071200001002000dd
:1004300011000700000020000000e0000200320070
:1004400000000200000000009c0502000000000007
:100450000040da000000fe004440a90080002000b7
:100460000000e0000300320000002000a00188002e
:100470004440a80000000600910188008000780038
:100480000000eb0015003700e280400032a0b4000d
:100490009101ba00e280400032a0b4009102ba009b
:1004a000e280400032a0b4000002eb00472bde00e7
:1004b000f507b200602ce10004003a000059eb009f
:1004c0008301e900fdff3e00040037006128e100e0
:1004d000010032000082eb00040007001101ba00a5
:1004e0000200e000e8ff3a00000006003159ba00bf
:1004f0008301e9000c0032002159ba008301e900b0
:10050000080032000400e00003003a00e2804000ee
:1005100032a0b400f5ff370011d9ba008301e90019
:10052000faff3a008100e800e180400032a0b40008
:0c053000000006000040da000000fe00a1
:020000040000fa
:10053c00486500006c6c00006f210000000000009a
:020000040000fa
:10054c000800fa00004f7800110798002207980065
:10055c00330798003e029000e00f52000900320071
:10056c0065168000f4ff2000848262001e43780030
:10057c000682fb004c22dd00050272006416880026
:10058c000a00370065168000f4ff200084826200a8
:10059c001e4278000483fb00040f20000402630059
:1005ac004822dd0005027200641688001e029000cd
:1005bc0004427800614262000482fb006102620026
:1005cc004722dd0066168000f5f72f0085026300d8
:1005dc00050272006416880010002000d401070088
:1005ec00ccc2a80010002000d1010700ccc2a90089
:1005fc0010002000ce0107002e009000cc01070057
:10060c000080fa00000006000600fa00004f780097
:10061c0011079800220798008001eb002e01900032
:10062c009e0090001e407800c5ff070013002000bc
:10063c002e0190009e0090001e407800c0ff070025
:10064c000080fa00000006000200fa00004f78005b
:10065c001e427800e20220001100200004407800c5
:10066c00e9ff07000080fa00000006000000fa0015
:10067c00c8e2a900c8c2a900c9e2a900c9c2a90060
:10068c00c9a2a900c982a90080a92300a80107005a
:10069c0013002000420021008000eb0030c0b300aa
:1006ac00a7ff070013002000420620008000eb008b
:1006bc0030c0b300a2ff0700420620008000eb0010
:1006cc0020c3b300d0ff0700820220008000eb00a3
:1006dc0080c2b300ccff0700820220008000eb0038
:1006ec0080c0b300c8ff0700826620008000eb00ca
:1006fc0010c0b300c4ff0700820220008000eb0092
:10070c0060c0b300c0ff0700820220008000eb0035
:10071c00c0c0b300bcff07000080fa000000060058
:10072c000400fa00100798000002eb00040f780098
:10073c00070037001e0278009e02900004824200df
:10074c001442780004407800bfff07001e0fe80039
:10075c001e0278009e02900004824200144278002f
:10076c00e04f5200f3ff3a000080fa000000060050
:10077c000000fa00826620008000eb0010c0b3007d
:10078c00a1ff07000080fa00000006000400fa0038
:10079c0020479800314798000042eb00044f780046
:1007ac0014c0b300144798001e4290000402fb00d2
:1007bc004722dd00144798002e429000e14f520072
:1007cc0003003a001e4278000444b000044f780045
:1007dc009e4278003e42900004c24200044f7800d2
:1007ec001e4290001e427200144798001e42900058
:1007fc00820220008000eb000440780082ff07009a
:10080c000080fa00000006000200fa0097ff0700c3
:10081c000002eb00040f780030c6b3008aff07001b
:10082c000002eb00040f780003003700803e20002c
:10083c003f0107001e0fe800743e20009e02780066
:10084c00848f5200f9ff3400c9ff0700e02928000b
:10085c00b3ff070021c0b30010c0b300cbff0700eb
:10086c000002eb00040f780003003700803e2000ec
:10087c002f0107001e0fe800743e20009e02780036
:10088c00848f5200f9ff3400e0292800a4ff0700f0
:10089c000002eb00040f780003003700803e2000bc
:1008ac00230107001e0fe800743e20009e02780012
:1008bc00848f5200f9ff34000080fa00000006001b
:1008cc000000fa00c002a900c022a900c842a90079
:1008dc00c922a900c902a800c942a800c962a8007f
:1008ec00c602a800c622a800ce42a800cf22a800ab
:1008fc002c03a8002c23a8002c83a8009660a80029
:10090c008660a9006ac0a80062c0a80069e0a800bf
:10091c0061e0a8006a00a8006200a8000080fa004c
:10092c00000006000200fa0000c2eb00044f780041
:10093c009660a900c402a900c422a800cc42a80059
:10094c00cd22a80020032000f900070055168000d6
:10095c000410200004826200e00f520003003a00f1
:10096c0014c3b300044f78000f00370055168000f5
:10097c000440200004826200e00f520003003a00a1
:10098c0024c3b300044f78000700370055168000cd
:10099c000480200004826200e00f520002003a0042
:1009ac0034c3b300044f7800c402a800c422a900c9
:1009bc00cc42a800cd22a80020032000dc000700b8
:1009cc00551680000410200004826200e00f5200d3
:1009dc0003003a0044c3b300044f78000f00370003
:1009ec00551680000440200004826200e00f520083
:1009fc0003003a0054c3b300044f780007003700db
:100a0c00551680000480200004826200e00f520022
:100a1c0002003a0064c3b300044f7800c402a8007b
:100a2c00c422a800cc42a900cd22a800200320009b
:100a3c00bf000700551680000410200004826200dd
:100a4c00e00f520003003a0074c3b300044f780067
:100a5c000f0037005516800004402000048262000d
:100a6c00e00f520003003a0084c3b300044f780037
:100a7c0007003700551680000480200004826200b5
:100a8c00e00f520002003a0094c3b300044f780008
:100a9c00c402a800c422a800cc42a800cd22a90000
:100aac0020032000a200070055168000041020002f
:100abc0004826200e00f520003003a00a4c2b300ab
:100acc00044f78000f0037005516800004402000ba
:100adc0004826200e00f520003003a0004c3b3002a
:100aec00044f780007003700551680000480200062
:100afc0004826200e00f520002003a0034c2b300dc
:100b0c00044f7800c402a900c422a900cc42a90059
:100b1c00cd22a9009660a8008660a9001e4278002c
:100b2c00044078000080fa00000006000000fa0083
:100b3c00cefe070062ff07000002eb0004408800b5
:100b4c000002eb00344088000002eb0044408800b7
:100b5c000002eb0054408800010037000000000048
:100b6c000440800005002000360020000700200013
:100b7c00860f5200878f5a00f8ff3e000460010078
:100b8c000300370009003700190037004700370011
:100b9c001400200024408800140020001440880019
:100bac00140020005440880042003700003220001e
:100bbc005f000700240020001440880024408000bf
:100bcc00e30f520003003a000002eb0004408800df
:100bdc0006003700140020002440880014408000d8
:100bec000440880034002000144088003100370095
:100bfc004cff07000042780004437800c5802000b9
:100c0c00864a7800c480200014427800e14f4200ec
:100c1c0021003200c4802000144278000440780087
:100c2c0089fe0700344080000402e800344088004c
:100c3c0034408000e80f520012003a00444080001b
:100c4c00e10f520003003a000002eb004440880020
:100c5c0003003700444080000402e8004440880050
:100c6c000002eb003440880034408000844278005d
:100c7c0044408000044278008540780004407800ad
:100c8c00c2fe07002400200024408800340020000d
:100c9c000440880004003700240020002440880011
:100cac00340020000440880002003700044080001b
:100cbc0000000000aaff3700841f78003400f80001
:100ccc0004002000a40188000000fa008660a9003e
:100cdc0004408000e00f520008003a0054408000ad
:100cec00e10f52000e003a001440800004408800ce
:100cfc000002eb002440880009003700044080000b
:100d0c00e30f520006003a00140020001440880043
:100d1c0014408000044088003400200024408800e7
:100d2c000080fa003400f9004f0278000040060001
:100d3c000200fa00000f78000002eb003408880073
:100d4c001e0278006e22b900040278006408880044
:100d5c0084e0a900840880000440a1000450a10094
:100d6c008408880011e1a800000000002504800020
:100d7c000408200004826200e00f5200fbff3200e6
:100d8c0011e1a9000080fa00000006000200fa0040
:100d9c00000f78000002eb00040888009e02780027
:100dac009403200004aab9000402780014088800f7
:100dbc0005e1a800240880000440a0000450a00015
:100dcc00240888008460a90000000000240480002e
:100ddc0068026200e00f5200fcff32008460a90040
:100dec0005e1a9000080fa00000006000000fa00ee
:100dfc000002eb000408880094032000140888000b
:100e0c00240880000440a0000450a000240888009e
:100e1c008460a9009460a80005e1a8000080fa0095
:040e2c0000000600bc
:020000040000fa
:100e3000000800000e00000000000000000000009c
:020000040000fa
:020000040001f9
:0457f800ad7b000085
:020000040000fa
:020000040001f9
:0457fc003f3f00002b
:00000001FF
