:020000040000fa
:080000000002040000000000f2
:020000040000fa
:100008009a0200009a0200009a0200009a02000078
:100018009a0200009a0200009a0200009a02000068
:100028009a0200009a0200009a0200009a02000058
:100038009a0200009a0200009a0200009a02000048
:020000040000fa
:020000040000fa
:100400000f8020000e7f22000e01880000000000f7
:10041000000020000000e000020032000001200087
:10042000200288000c000700a04c200001002000e2
:1004300011000700000020000000e0000200320070
:100440000000020000000000c404020000000000e0
:100450000040da000000fe004440a90080002000b7
:100460000000e0000300320000002000a00188002e
:100470004440a80000000600910188008000780038
:100480000000eb0015003700e280400032a0b4000d
:100490009101ba00e280400032a0b4009102ba009b
:1004a000e280400032a0b4000002eb00472bde00e7
:1004b000f507b200602ce10004003a000059eb009f
:1004c0008301e900fdff3e00040037006128e100e0
:1004d000010032000082eb00040007001101ba00a5
:1004e0000200e000e8ff3a00000006003159ba00bf
:1004f0008301e9000c0032002159ba008301e900b0
:10050000080032000400e00003003a00e2804000ee
:1005100032a0b400f5ff370011d9ba008301e90019
:10052000faff3a008100e800e180400032a0b40008
:0c053000000006000040da000000fe00a1
:020000040000fa
:10053c00486500006c6c00006f210000000000009a
:020000040000fa
:10054c000800fa00004f7800110798002207980065
:10055c00330798003e029000e00f52000900320071
:10056c0065168000f4ff2000848262001e43780030
:10057c000682fb004c22dd00050272006416880026
:10058c000a00370065168000f4ff200084826200a8
:10059c001e4278000483fb00040f20000402630059
:1005ac004822dd0005027200641688001e029000cd
:1005bc0004427800614262000482fb006102620026
:1005cc004722dd0066168000f5f72f0085026300d8
:1005dc00050272006416880010002000b8000700a5
:1005ec00ccc2a80010002000b5000700ccc2a900a6
:1005fc0010002000b20007002e009000b000070091
:10060c000080fa00000006000600fa00004f780097
:10061c0011079800220798008001eb002e01900032
:10062c009e0090001e407800c5ff070013002000bc
:10063c002e0190009e0090001e407800c0ff070025
:10064c000080fa00000006000200fa00004f78005b
:10065c001e427800e20220001100200004407800c5
:10066c00e9ff07000080fa00000006000000fa0015
:10067c00c8e2a900c8c2a900c9e2a900c9c2a90060
:10068c00c9a2a900c982a90080a923008c00070077
:10069c0013002000420021008000eb0030c0b300aa
:1006ac00a7ff070013002000420620008000eb008b
:1006bc0030c0b300a2ff0700420620008000eb0010
:1006cc0020c3b300d0ff0700820220008000eb00a3
:1006dc0080c2b300ccff0700820220008000eb0038
:1006ec0080c0b300c8ff0700826620008000eb00ca
:1006fc0010c0b300c4ff0700820220008000eb0092
:10070c0060c0b300c0ff0700820220008000eb0035
:10071c00c0c0b300bcff07000080fa000000060058
:10072c000400fa00100798000002eb00040f780098
:10073c00070037001e0278009e02900004824200df
:10074c001442780004407800bfff07001e0fe80039
:10075c001e0278009e02900004824200144278002f
:10076c00e04f5200f3ff3a000080fa000000060050
:10077c000000fa00826620008000eb0010c0b3007d
:10078c00a1ff07000080fa00000006000400fa0038
:10079c0020479800314798000042eb00044f780046
:1007ac0014c0b300144798001e4290000402fb00d2
:1007bc004722dd00144798002e429000e14f520072
:1007cc0003003a001e4278000444b000044f780045
:1007dc009e4278003e42900004c24200044f7800d2
:1007ec001e4290001e427200144798001e42900058
:1007fc00820220008000eb000440780082ff07009a
:10080c000080fa00000006000200fa0097ff0700c3
:10081c000002eb00040f780030c6b3008aff07001b
:10082c000002eb00040f780003003700803e20002c
:10083c00230007001e0fe800743e20009e02780083
:10084c00848f5200f9ff3400c9ff0700e02928000b
:10085c00b3ff070021c0b30010c0b300cbff0700eb
:10086c000002eb00040f780003003700803e2000ec
:10087c00130007001e0fe800743e20009e02780053
:10088c00848f5200f9ff3400e0292800a4ff0700f0
:10089c000002eb00040f780003003700803e2000bc
:1008ac00070007001e0fe800743e20009e0278002f
:1008bc00848f5200f9ff34000080fa00000006001b
:1008cc000200fa00000f78000002eb0034088800e8
:1008dc001e0278006e22b9000402780064088800b9
:1008ec0084e0a900840880000440a1000450a10009
:1008fc008408880011e1a800000000002504800095
:10090c000408200004826200e00f5200fbff32005a
:10091c0011e1a9000080fa00000006000200fa00b4
:10092c00000f78000002eb00040888009e0278009b
:10093c009403200004aab90004027800140888006b
:10094c0005e1a800240880000440a0000450a00089
:10095c00240888008460a9000000000024048000a2
:10096c0068026200e00f5200fcff32008460a900b4
:10097c0005e1a9000080fa00000006000000fa0062
:08098c00a1ff0700feff370088
:020000040000fa
:04099400000000005f
:020000040000fa
:020000040001f9
:0457f800ad7b000085
:020000040000fa
:020000040001f9
:0457fc003f3f00002b
:00000001FF
