:020000040000fa
:080000000002040000000000f2
:020000040000fa
:100008009a0200009a0200009a0200009a02000078
:100018009a0200009a0200009a0200009a02000068
:100028009a0200009a0200009a0200009a02000058
:100038009a0200009a0200009a0200009a02000048
:10004800440300009a0200009a0200009a0200008d
:100058009a0200009a0200009a0200009a02000028
:100068009a0200009a0200009a0200000c030000a5
:100078009a0200009a0200009a0200009a02000008
:100088009a0200009a0200009a0200009a020000f8
:100098009a0200009a0200009a0200009a020000e8
:1000a8009a0200009a0200009a0200009a020000d8
:1000b8009a0200009a0200009a0200009a020000c8
:1000c8009a0200009a0200009a0200009a020000b8
:1000d8009a0200009a0200009a0200009a020000a8
:1000e8009a0200009a0200009a0200009a02000098
:1000f8009a0200009a0200009a0200009a02000088
:100108009a0200009a0200009a0200009a02000077
:100118009a0200009a0200009a0200009a02000067
:100128009a0200009a0200009a0200009a02000057
:100138009a0200009a0200009a0200009a02000047
:100148009a0200009a0200009a0200009a02000037
:100158009a0200009a0200009a0200009a02000027
:100168009a0200009a0200009a0200009a02000017
:100178009a0200009a0200009a0200009a02000007
:100188009a0200009a0200009a0200009a020000f7
:100198009a0200009a0200009a0200009a020000e7
:1001a8009a0200009a0200009a0200009a020000d7
:1001b8009a0200009a0200009a0200009a020000c7
:1001c8009a0200009a0200009a0200009a020000b7
:1001d8009a0200009a0200009a0200009a020000a7
:1001e8009a0200009a0200009a0200009a02000097
:0801f8009a0200009a020000c7
:020000040000fa
:100208009a0200009a0200009a0200009a02000076
:100218009a0200009a0200009a0200009a02000066
:100228009a0200009a0200009a0200009a02000056
:100238009a0200009a0200009a0200009a02000046
:10024800440300009a0200009a0200009a0200008b
:100258009a0200009a0200009a0200009a02000026
:100268009a0200009a0200009a0200000c030000a3
:100278009a0200009a0200009a0200009a02000006
:100288009a0200009a0200009a0200009a020000f6
:100298009a0200009a0200009a0200009a020000e6
:1002a8009a0200009a0200009a0200009a020000d6
:1002b8009a0200009a0200009a0200009a020000c6
:1002c8009a0200009a0200009a0200009a020000b6
:1002d8009a0200009a0200009a0200009a020000a6
:1002e8009a0200009a0200009a0200009a02000096
:1002f8009a0200009a0200009a0200009a02000086
:100308009a0200009a0200009a0200009a02000075
:100318009a0200009a0200009a0200009a02000065
:100328009a0200009a0200009a0200009a02000055
:100338009a0200009a0200009a0200009a02000045
:100348009a0200009a0200009a0200009a02000035
:100358009a0200009a0200009a0200009a02000025
:100368009a0200009a0200009a0200009a02000015
:100378009a0200009a0200009a0200009a02000005
:100388009a0200009a0200009a0200009a020000f5
:100398009a0200009a0200009a0200009a020000e5
:1003a8009a0200009a0200009a0200009a020000d5
:1003b8009a0200009a0200009a0200009a020000c5
:1003c8009a0200009a0200009a0200009a020000b5
:1003d8009a0200009a0200009a0200009a020000a5
:1003e8009a0200009a0200009a0200009a02000095
:0803f8009a0200009a020000c5
:020000040000fa
:100400008f8020000e7f22000e0188000000000077
:10041000000020000000e000020032000001200087
:10042000200288000c000700a03a200001002000f4
:1004300011000700000020000000e0000200320070
:1004400000000200000000009e0202000000000008
:100450000040da000000fe004440a9000000200037
:100460000000e0000300320000002000a00188002e
:100470004440a80000000600910188008000780038
:100480000000eb0015003700e280400032a0b4000d
:100490009101ba00e280400032a0b4009102ba009b
:1004a000e280400032a0b4000002eb00472bde00e7
:1004b000f507b200602ce10004003a000059eb009f
:1004c0008301e900fdff3e00040037006128e100e0
:1004d000010032000082eb00040007001101ba00a5
:1004e0000200e000e8ff3a00000006003159ba00bf
:1004f0008301e9000c0032002159ba008301e900b0
:10050000080032000400e00003003a00e2804000ee
:1005100032a0b400f5ff370011d9ba008301e90019
:10052000faff3a008100e800e180400032a0b40008
:0c053000000006000040da000000fe00a1
:020000040000fa
:10053c000000fa0064000700750007006d0007005a
:10054c000100370000000000044080006123b80067
:10055c000082eb008082eb000602420087824a0098
:10056c003600200007002000860f5200878f5a00ab
:10057c00f4ff3e0004600100030037000a0037005e
:10058c001100370018003700440020003440880068
:10059c002400200024408800cd82a900cde2a800d0
:1005ac00cda2a800180037001400200034408800a9
:1005bc003400200024408800cda2a900cd82a800e0
:1005cc00cdc2a80010003700240020003440880061
:1005dc004400200024408800cdc2a900cda2a80070
:1005ec00cde2a80008003700340020003440880019
:1005fc001400200024408800cde2a900cdc2a80040
:10060c00cd82a80000000000cfff3700849fbe0001
:10061c003400f80004002000a40188000000fa0057
:10062c008660a90011e1a800551680000402200084
:10063c0004826200e00f52000a0032001440800075
:10064c00e00f520007003a0011e1a9000002eb0094
:10065c00340888000002eb00540888002440800015
:10066c00044088000002eb00144088000080fa006f
:10067c003400f9004f02be0000400600841f7800d1
:10068c003400f80004002000a40188000000fa00e7
:10069c008500a90011e1a9000002eb0034088800d4
:1006ac000002eb00540888003440800004408800ad
:1006bc0014002000144088000080fa003400f90077
:1006cc004f027800004006000000fa00c982a90021
:1006dc00c9a2a900c9c2a900c9e2a900cd82a8007b
:1006ec00cda2a800cdc2a800cde2a8000080fa00df
:1006fc00000006000000fa00c8a2a8008660a9004d
:10070c009660a8006360a8000080fa000000060054
:10071c000000fa001061a800840880000440a100c9
:10072c000450a10084088800141c20007408880060
:10073c000082eb00640888009500a8008500a900e1
:08074c000080fa000000060025
:020000040000fa
:10075400000800000400000000000000040800007d
:10076400040000000200000001000400000000007a
:040774000000000081
:020000040000fa
:020000040001f9
:0457f800ad7b000085
:020000040000fa
:020000040001f9
:0457fc003f3f00002b
:00000001FF
