:020000040000fa
:080000000002040000000000f2
:020000040000fa
:100008009a0200009a0200009a0200009a02000078
:100018009a0200009a0200009a0200009a02000068
:100028009a0200009a0200009a020000ac07000041
:100038009a0200009a0200009a0200009a02000048
:100048009a0200009a0200009a0200009a02000038
:100058009a0200009a0200009a0200009a02000028
:100068009a0200009a0200009a020000ec060000c2
:100078009a0200009a0200009a0200009a02000008
:100088009a0200009a0200009a0200009a020000f8
:100098009a0200009a0200009a0200009a020000e8
:1000a8009a0200009a0200009a0200009a020000d8
:1000b8009a0200009a0200009a0200009a020000c8
:1000c8009a0200009a0200009a0200009a020000b8
:1000d8009a0200009a0200009a0200009a020000a8
:1000e8009a0200009a0200009a0200009a02000098
:1000f8009a0200009a0200009a0200009a02000088
:100108009a0200009a0200009a0200009a02000077
:100118009a0200009a0200009a0200009a02000067
:100128009a0200009a0200009a0200009a02000057
:100138009a0200009a0200009a0200009a02000047
:100148009a0200009a0200009a0200009a02000037
:100158009a0200009a0200009a0200009a02000027
:100168009a0200009a0200009a0200009a02000017
:100178009a0200009a0200009a0200009a02000007
:100188009a0200009a0200009a0200009a020000f7
:100198009a0200009a0200009a0200009a020000e7
:1001a8009a0200009a0200009a0200009a020000d7
:1001b8009a0200009a0200009a0200009a020000c7
:1001c8009a0200009a0200009a0200009a020000b7
:1001d8009a0200009a0200009a0200009a020000a7
:1001e8009a0200009a0200009a0200009a02000097
:0801f8009a0200009a020000c7
:020000040000fa
:100208009a0200009a0200009a0200009a02000076
:100218009a0200009a0200009a0200009a02000066
:100228009a0200009a0200009a020000ac0700003f
:100238009a0200009a0200009a0200009a02000046
:100248009a0200009a0200009a0200009a02000036
:100258009a0200009a0200009a0200009a02000026
:100268009a0200009a0200009a020000ec060000c0
:100278009a0200009a0200009a0200009a02000006
:100288009a0200009a0200009a0200009a020000f6
:100298009a0200009a0200009a0200009a020000e6
:1002a8009a0200009a0200009a0200009a020000d6
:1002b8009a0200009a0200009a0200009a020000c6
:1002c8009a0200009a0200009a0200009a020000b6
:1002d8009a0200009a0200009a0200009a020000a6
:1002e8009a0200009a0200009a0200009a02000096
:1002f8009a0200009a0200009a0200009a02000086
:100308009a0200009a0200009a0200009a02000075
:100318009a0200009a0200009a0200009a02000065
:100328009a0200009a0200009a0200009a02000055
:100338009a0200009a0200009a0200009a02000045
:100348009a0200009a0200009a0200009a02000035
:100358009a0200009a0200009a0200009a02000025
:100368009a0200009a0200009a0200009a02000015
:100378009a0200009a0200009a0200009a02000005
:100388009a0200009a0200009a0200009a020000f5
:100398009a0200009a0200009a0200009a020000e5
:1003a8009a0200009a0200009a0200009a020000d5
:1003b8009a0200009a0200009a0200009a020000c5
:1003c8009a0200009a0200009a0200009a020000b5
:1003d8009a0200009a0200009a0200009a020000a5
:1003e8009a0200009a0200009a0200009a02000095
:0803f8009a0200009a020000c5
:020000040000fa
:100400004f8120000e7f22000e01880000000000b6
:10041000000020000000e000020032000001200087
:10042000200288000c000700a080200001002000ae
:1004300011000700000020000000e0000200320070
:1004400000000200000000005e0602000000000044
:100450000040da000000fe004440a900a001200096
:100460000000e0000300320000002000a00188002e
:100470004440a80000000600910188008000780038
:100480000000eb0015003700e280400032a0b4000d
:100490009101ba00e280400032a0b4009102ba009b
:1004a000e280400032a0b4000002eb00472bde00e7
:1004b000f507b200602ce10004003a000059eb009f
:1004c0008301e900fdff3e00040037006128e100e0
:1004d000010032000082eb00040007001101ba00a5
:1004e0000200e000e8ff3a00000006003159ba00bf
:1004f0008301e9000c0032002159ba008301e900b0
:10050000080032000400e00003003a00e2804000ee
:1005100032a0b400f5ff370011d9ba008301e90019
:10052000faff3a008100e800e180400032a0b40008
:10053000000006000040da000000fe00839f680013
:100540000100e00002003d0060001000e0801800a3
:100550000300e00002003d0060011100e08119008d
:10056000050007004f00e00002003b0060001000a3
:10057000e0801800000006006022b800060220009b
:100580000000d0008180d2000482d2008582d20097
:100590000000a0000202520083825a0003003100d2
:1005a0000202420083824a000000a1000603e90023
:0805b000f3ff3a000000060011
:020000040000fa
:1005b800525500004e4e0000494e0000473a0000d8
:1005c80000530000544f0000505000004544000004
:1005d8003a000000486500006c6c00006f210000c4
:0405e800000000000f
:020000040000fa
:1005ec000800fa00004f78001107980022079800c5
:1005fc00330798003e029000e00f520009003200d1
:10060c0065168000f4ff2000848262001e4378008f
:10061c000682fb004c22dd00050272006416880085
:10062c000a00370065168000f4ff20008482620007
:10063c001e4278000483fb00040f200004026300b8
:10064c004822dd0005027200641688001e0290002c
:10065c0004427800614262000482fb006102620085
:10066c004722dd0066168000f5f72f008502630037
:10067c00050272006416880010002000b800070004
:10068c00ccc2a80010002000b5000700ccc2a90005
:10069c0010002000b20007002e009000b0000700f0
:1006ac000080fa00000006000600fa00004f7800f7
:1006bc0011079800220798008001eb002e01900092
:1006cc009e0090001e407800c5ff0700130020001c
:1006dc002e0190009e0090001e407800c0ff070085
:1006ec000080fa00000006000200fa00004f7800bb
:1006fc001e427800e2022000110020000440780025
:10070c00e9ff07000080fa00000006000000fa0074
:10071c00c8e2a900c8c2a900c9e2a900c9c2a900bf
:10072c00c9a2a900c982a90080a923008c000700d6
:10073c0013002000420021008000eb0030c0b30009
:10074c00a7ff070013002000420620008000eb00ea
:10075c0030c0b300a2ff0700420620008000eb006f
:10076c0020c3b300d0ff0700820220008000eb0002
:10077c0080c2b300ccff0700820220008000eb0097
:10078c0080c0b300c8ff0700826620008000eb0029
:10079c0010c0b300c4ff0700820220008000eb00f1
:1007ac0060c0b300c0ff0700820220008000eb0095
:1007bc00c0c0b300bcff07000080fa0000000600b8
:1007cc000400fa00100798000002eb00040f7800f8
:1007dc00070037001e0278009e029000048242003f
:1007ec001442780004407800bfff07001e0fe80099
:1007fc001e0278009e02900004824200144278008f
:10080c00e04f5200f3ff3a000080fa0000000600af
:10081c000000fa00826620008000eb0010c0b300dc
:10082c00a1ff07000080fa00000006000400fa0097
:10083c0020479800314798000042eb00044f7800a5
:10084c0014c0b300144798001e4290000402fb0031
:10085c004722dd00144798002e429000e14f5200d1
:10086c0003003a001e4278000444b000044f7800a4
:10087c009e4278003e42900004c24200044f780031
:10088c001e4290001e427200144798001e429000b7
:10089c00820220008000eb000440780082ff0700f9
:1008ac000080fa00000006000200fa0097ff070023
:1008bc000002eb00040f780030c6b3008aff07007b
:1008cc000002eb00040f780003003700803e20008c
:1008dc00230007001e0fe800743e20009e027800e3
:1008ec00848f5200f9ff3400c9ff0700e02e280066
:1008fc00b3ff070021c0b30010c0b300cbff07004b
:10090c000002eb00040f780003003700803e20004b
:10091c00130007001e0fe800743e20009e027800b2
:10092c00848f5200f9ff3400e02e2800a4ff07004a
:10093c000002eb00040f780003003700803e20001b
:10094c00070007001e0fe800743e20009e0278008e
:10095c00848f5200f9ff34000080fa00000006007a
:10096c000200fa00000f78000002eb003408880047
:10097c001e0278006e22b900040278006408880018
:10098c0084e0a900840880000440a1000450a10068
:10099c008408880011e1a8000000000025048000f4
:1009ac000408200004826200e00f5200fbff3200ba
:1009bc0011e1a9000080fa00000006000200fa0014
:1009cc00000f78000002eb00040888009e027800fb
:1009dc009403200004aab9000402780014088800cb
:1009ec0005e1a800240880000440a0000450a000e9
:1009fc00240888008460a900000000002404800002
:100a0c0068026200e00f5200fcff32008460a90013
:100a1c0005e1a9000080fa00000006000000fa00c1
:100a2c000002eb00040888009403200014088800de
:100a3c00240880000440a0000450a0002408880072
:100a4c008460a9009460a80005e1a8000080fa0069
:100a5c00000006001000fa00700798000002eb007e
:100a6c00040f78000002eb00140798000002eb0062
:100a7c002407980004c3b3006447980004c3b30070
:100a8c007447980004c3b300044f980004c3b30028
:100a9c00144f980004c3b300244f980004c3b30050
:100aac00344f980004c3b300444f980004c3b30000
:100abc00544f98007e0390001400200005a62e00d1
:100acc00850f5300010031000002eb00040f780089
:100adc007e0290006120b8001e027800cfa2de00da
:100aec00065a210006abb900060378008083eb00a0
:100afc0007a1b90082037800070343008402780041
:100b0c00045a2100042ab800050343008602780029
:100b1c000002420081824a00823e20000300200035
:100b2c000400be0082fe07000002be0014079800fd
:100b3c009e027800045a210004aab900040378002c
:100b4c009e02900084c12f0004aab9000402780010
:100b5c00840243007e029000048242002407980025
:100b6c009e027800a4002000110009008402d80025
:100b7c0000027800044278000443b00074479800e7
:100b8c009e027800a4002000110009008402d80005
:100b9c0001027800044278000443b000044f98002e
:100bac009e029000a4002000110009008402d800cd
:100bbc0000027800044278000443b000244f9800ef
:100bcc009e029000a4002000110009008402d800ad
:100bdc0001027800044278000443b000344f9800be
:100bec00ae02900044062000110009008402d800d7
:100bfc0000027800044278000443b000444f98008f
:100c0c00ae02900044062000110009008402d800b6
:100c1c000102780084027800a40020001100090071
:100c2c008402d80000027800044278000443b0002b
:100c3c00544f9800fe429000a4802000054a780092
:100c4c000e4890000be8b700a4c3b30084427800b0
:100c5c00c1802000854878002e4890000de8b70030
:100c6c003e4a9000e180200084487800a4c3b30081
:100c7c0004437800f5802000864a7800ce48900026
:100c8c000081200001487800de4a90001481200089
:100c9c00054a78000042eb000440780012e8b700e7
:100cac00a4802000040078000080fa0000000600f8
:100cbc000000fa00cd000700b8000700c2000700d2
:100ccc0034002000044088000002eb00244088001f
:100cdc000002eb00344088000100370000000000e7
:100cec000440800005002000360020000700200092
:100cfc00860f5200878f5a00f8ff3e0004600100f7
:100d0c0007003700170037002700370000003700b6
:100d1c007efe070014002000044088002a003700e3
:100d2c00c422a800c402a900c02d2800a4fe0700fc
:100d3c008040eb0010c0b300bcfe070044408000b4
:100d4c000400780043ff07000002780004007800dc
:100d5c009bfe07008040eb000040eb00b3fe070059
:100d6c0019003700c402a800c422a900502e280084
:100d7c0093fe07008040eb0010c0b300abfe0700f1
:100d8c00444080000400780032ff07000002780025
:100d9c00040078008afe07008040eb000040eb0066
:100dac00a2fe070008003700c402a800c422a90054
:100dbc000002eb004440880095fe07001400200060
:100dcc000440880000000000c5ff37003600f80022
:100ddc00809fbe00829fbe00849fbe00869fbe0087
:100dec003400f80000002000a00188000000fa0088
:100dfc008660a90080382100d9fe070054168000b7
:100e0c0064026200e00f520003003a00140020005c
:100e1c00344088000700370055168000040220007b
:100e2c0004826200e00f520002003a00140020001d
:100e3c002440880024408000e10f52000d003a004d
:100e4c00551680000402200004826200e00f52005c
:100e5c000800320004408000e10f520005003a0007
:100e6c0024002000044088000002eb00244088008d
:100e7c002e00370034408000e10f52000d003a0084
:100e8c005416800064026200e00f52000900320028
:100e9c0004408000e10f520006003a000002eb0013
:100eac0004408800ddfe07000002eb00344088009f
:100ebc001e00370034408000e10f52000c003a0055
:100ecc005416800064026200e00f520008003200e9
:100edc0004408000e00f520005003a00140020008e
:100eec00044088000002eb00344088000f003700fb
:100efc0024408000e10f52000c003a00551680008f
:100f0c000402200004826200e00f5200070032004d
:100f1c0004408000e00f520004003a000002eb0095
:100f2c00044088000002eb00244088000080fa0096
:100f3c003400f9004f03be004f02be004f01be004b
:100f4c004f00be003600f90000400600841f7800f8
:100f5c003400f80004002000a40188000000fa000e
:100f6c008460a90004408000e00f520006003a00a3
:100f7c00444080000402e800444088000002eb007a
:100f8c00040888000100370005e1a9000080fa0080
:100f9c003400f9004f027800004006000000fa000f
:100fac00c002a900c022a9002c03a9002c23a9006f
:100fbc00c602a800c622a800c422a800c402a80029
:100fcc000080fa00000006000000fa00c842a800e9
:100fdc0060c0a80068c0a8002c83a8009660a80078
:100fec008660a9000080fa00000006000000fa00ec
:100ffc00c8a2a8008660a8009660a8006360a8003c
:08100c000080fa00000006005c
:020000040000fa
:10101400000800000a000000000000000a080000a8
:0c1024000a0000000000000000000000b6
:020000040000fa
:020000040001f9
:0457f800ad7b000085
:020000040000fa
:020000040001f9
:0457fc003f3f00002b
:00000001FF
